{
  "_format": "hh-sol-artifact-1",
  "contractName": "DonaFT",
  "sourceName": "contracts/DonaFT.sol",
  "abi": [
    {
      "inputs": [
        {
          "internalType": "address",
          "name": "factoryAddr_",
          "type": "address"
        },
        {
          "internalType": "string",
          "name": "firstName_",
          "type": "string"
        },
        {
          "internalType": "string",
          "name": "lastName_",
          "type": "string"
        },
        {
          "internalType": "address",
          "name": "writerAddr_",
          "type": "address"
        }
      ],
      "stateMutability": "nonpayable",
      "type": "constructor"
    },
    {
      "anonymous": false,
      "inputs": [
        {
          "indexed": true,
          "internalType": "address",
          "name": "owner",
          "type": "address"
        },
        {
          "indexed": true,
          "internalType": "address",
          "name": "approved",
          "type": "address"
        },
        {
          "indexed": true,
          "internalType": "uint256",
          "name": "tokenId",
          "type": "uint256"
        }
      ],
      "name": "Approval",
      "type": "event"
    },
    {
      "anonymous": false,
      "inputs": [
        {
          "indexed": true,
          "internalType": "address",
          "name": "owner",
          "type": "address"
        },
        {
          "indexed": true,
          "internalType": "address",
          "name": "operator",
          "type": "address"
        },
        {
          "indexed": false,
          "internalType": "bool",
          "name": "approved",
          "type": "bool"
        }
      ],
      "name": "ApprovalForAll",
      "type": "event"
    },
    {
      "anonymous": false,
      "inputs": [
        {
          "indexed": true,
          "internalType": "address",
          "name": "from",
          "type": "address"
        },
        {
          "indexed": true,
          "internalType": "address",
          "name": "to",
          "type": "address"
        },
        {
          "indexed": true,
          "internalType": "uint256",
          "name": "tokenId",
          "type": "uint256"
        }
      ],
      "name": "Transfer",
      "type": "event"
    },
    {
      "inputs": [
        {
          "internalType": "address",
          "name": "to",
          "type": "address"
        },
        {
          "internalType": "uint256",
          "name": "tokenId",
          "type": "uint256"
        }
      ],
      "name": "approve",
      "outputs": [],
      "stateMutability": "nonpayable",
      "type": "function"
    },
    {
      "inputs": [
        {
          "internalType": "address",
          "name": "owner",
          "type": "address"
        }
      ],
      "name": "balanceOf",
      "outputs": [
        {
          "internalType": "uint256",
          "name": "",
          "type": "uint256"
        }
      ],
      "stateMutability": "view",
      "type": "function"
    },
    {
      "inputs": [
        {
          "internalType": "uint256",
          "name": "tokenId",
          "type": "uint256"
        }
      ],
      "name": "getApproved",
      "outputs": [
        {
          "internalType": "address",
          "name": "",
          "type": "address"
        }
      ],
      "stateMutability": "view",
      "type": "function"
    },
    {
      "inputs": [
        {
          "internalType": "address",
          "name": "owner",
          "type": "address"
        },
        {
          "internalType": "address",
          "name": "operator",
          "type": "address"
        }
      ],
      "name": "isApprovedForAll",
      "outputs": [
        {
          "internalType": "bool",
          "name": "",
          "type": "bool"
        }
      ],
      "stateMutability": "view",
      "type": "function"
    },
    {
      "inputs": [
        {
          "internalType": "uint256",
          "name": "letterType",
          "type": "uint256"
        },
        {
          "internalType": "uint256",
          "name": "letterId",
          "type": "uint256"
        }
      ],
      "name": "letterURI",
      "outputs": [
        {
          "internalType": "string",
          "name": "",
          "type": "string"
        }
      ],
      "stateMutability": "view",
      "type": "function"
    },
    {
      "inputs": [
        {
          "internalType": "address",
          "name": "ownerAddr",
          "type": "address"
        }
      ],
      "name": "mint",
      "outputs": [
        {
          "internalType": "uint256",
          "name": "tokenId",
          "type": "uint256"
        }
      ],
      "stateMutability": "nonpayable",
      "type": "function"
    },
    {
      "inputs": [],
      "name": "name",
      "outputs": [
        {
          "internalType": "string",
          "name": "",
          "type": "string"
        }
      ],
      "stateMutability": "view",
      "type": "function"
    },
    {
      "inputs": [
        {
          "internalType": "uint256",
          "name": "tokenId",
          "type": "uint256"
        }
      ],
      "name": "ownerOf",
      "outputs": [
        {
          "internalType": "address",
          "name": "",
          "type": "address"
        }
      ],
      "stateMutability": "view",
      "type": "function"
    },
    {
      "inputs": [
        {
          "internalType": "address",
          "name": "from",
          "type": "address"
        },
        {
          "internalType": "address",
          "name": "to",
          "type": "address"
        },
        {
          "internalType": "uint256",
          "name": "tokenId",
          "type": "uint256"
        }
      ],
      "name": "safeTransferFrom",
      "outputs": [],
      "stateMutability": "nonpayable",
      "type": "function"
    },
    {
      "inputs": [
        {
          "internalType": "address",
          "name": "from",
          "type": "address"
        },
        {
          "internalType": "address",
          "name": "to",
          "type": "address"
        },
        {
          "internalType": "uint256",
          "name": "tokenId",
          "type": "uint256"
        },
        {
          "internalType": "bytes",
          "name": "data",
          "type": "bytes"
        }
      ],
      "name": "safeTransferFrom",
      "outputs": [],
      "stateMutability": "nonpayable",
      "type": "function"
    },
    {
      "inputs": [
        {
          "internalType": "address",
          "name": "operator",
          "type": "address"
        },
        {
          "internalType": "bool",
          "name": "approved",
          "type": "bool"
        }
      ],
      "name": "setApprovalForAll",
      "outputs": [],
      "stateMutability": "nonpayable",
      "type": "function"
    },
    {
      "inputs": [
        {
          "internalType": "address",
          "name": "fundraiser_",
          "type": "address"
        }
      ],
      "name": "setFundraiser",
      "outputs": [],
      "stateMutability": "nonpayable",
      "type": "function"
    },
    {
      "inputs": [
        {
          "internalType": "bytes4",
          "name": "interfaceId",
          "type": "bytes4"
        }
      ],
      "name": "supportsInterface",
      "outputs": [
        {
          "internalType": "bool",
          "name": "",
          "type": "bool"
        }
      ],
      "stateMutability": "view",
      "type": "function"
    },
    {
      "inputs": [],
      "name": "symbol",
      "outputs": [
        {
          "internalType": "string",
          "name": "",
          "type": "string"
        }
      ],
      "stateMutability": "view",
      "type": "function"
    },
    {
      "inputs": [
        {
          "internalType": "uint256",
          "name": "tokenId",
          "type": "uint256"
        }
      ],
      "name": "tokenURI",
      "outputs": [
        {
          "internalType": "string",
          "name": "",
          "type": "string"
        }
      ],
      "stateMutability": "view",
      "type": "function"
    },
    {
      "inputs": [
        {
          "internalType": "address",
          "name": "from",
          "type": "address"
        },
        {
          "internalType": "address",
          "name": "to",
          "type": "address"
        },
        {
          "internalType": "uint256",
          "name": "tokenId",
          "type": "uint256"
        }
      ],
      "name": "transferFrom",
      "outputs": [],
      "stateMutability": "nonpayable",
      "type": "function"
    },
    {
      "inputs": [
        {
          "internalType": "bytes32[5]",
          "name": "contents",
          "type": "bytes32[5]"
        }
      ],
      "name": "updateLetter",
      "outputs": [],
      "stateMutability": "nonpayable",
      "type": "function"
    },
    {
      "inputs": [],
      "name": "writer",
      "outputs": [
        {
          "internalType": "address",
          "name": "writerAddr",
          "type": "address"
        },
        {
          "internalType": "string",
          "name": "writerName",
          "type": "string"
        }
      ],
      "stateMutability": "view",
      "type": "function"
    }
  ],
  "bytecode": "0x60806040523480156200001157600080fd5b506040516200333338038062003333833981016040819052620000349162000373565b8260405160200162000047919062000442565b60408051601f198184030181529190528260006200006683826200055b565b5060016200007582826200055b565b5050506040518060400160405280826001600160a01b031681526020018484604051602001620000a792919062000627565b60408051808303601f1901815291905290528051600a80546001600160a01b0319166001600160a01b039092169190911781556020820151600b90620000ee90826200055b565b5050600680546001600160a01b0319166001600160a01b038716179055506040805160a081018252600080825260208083018290529282018190526060820181905260808201819052805260079091526200016d907f6d5257204ebe7d88fd91ae87941cb2dd9d8062b64ae5a2bd2d28ec40b9fbf6df906005620001af565b50620001856008620001a660201b620008ef1760201c565b6200019c6009620001a660201b620008ef1760201c565b5050505062000652565b80546001019055565b8260058101928215620001e0579160200282015b82811115620001e0578251825591602001919060010190620001c3565b50620001ee929150620001f2565b5090565b5b80821115620001ee5760008155600101620001f3565b60006001600160a01b0382165b92915050565b620002278162000209565b81146200023357600080fd5b50565b805162000216816200021c565b634e487b7160e01b600052604160045260246000fd5b601f19601f83011681016001600160401b038111828210171562000281576200028162000243565b6040525050565b60006200029460405190565b9050620002a2828262000259565b919050565b60006001600160401b03821115620002c357620002c362000243565b601f19601f83011660200192915050565b60005b83811015620002f1578181015183820152602001620002d7565b50506000910152565b6000620003116200030b84620002a7565b62000288565b9050828152602081018484840111156200032e576200032e600080fd5b6200033b848285620002d4565b509392505050565b600082601f830112620003595762000359600080fd5b81516200036b848260208601620002fa565b949350505050565b600080600080608085870312156200038e576200038e600080fd5b60006200039c878762000236565b602087015190955090506001600160401b03811115620003bf57620003bf600080fd5b620003cd8782880162000343565b604087015190945090506001600160401b03811115620003f057620003f0600080fd5b620003fe8782880162000343565b9250506060620004118782880162000236565b91505092959194509250565b600062000428825190565b62000438818560208601620002d4565b9290920192915050565b6b02632ba3a32b910333937b6960a51b8152600c016200021681836200041d565b634e487b7160e01b600052602260045260246000fd5b6002810460018216806200048e57607f821691505b602082108103620004a357620004a362000463565b50919050565b600062000216620004b78381565b90565b620004c583620004a9565b815460001960089490940293841b1916921b91909117905550565b6000620004ef818484620004ba565b505050565b8181101562000513576200050a600082620004e0565b600101620004f4565b5050565b601f821115620004ef576000818152602090206020601f85010481016020851015620005405750805b620005546020601f860104830182620004f4565b5050505050565b81516001600160401b0381111562000577576200057762000243565b62000583825462000479565b6200059082828562000517565b506020601f821160018114620005c85760008315620005af5750848201515b600019600885021c198116600285021785555062000554565b600084815260208120601f198516915b82811015620005fa5787850151825560209485019460019092019101620005d8565b5084821015620006185783870151600019601f87166008021c191681555b50505050600202600101905550565b6200063381846200041d565b600160fd1b815260010190506200064b81836200041d565b9392505050565b612cd180620006626000396000f3fe608060405234801561001057600080fd5b50600436106101365760003560e01c80636a627842116100b2578063a22cb46511610081578063b88d4fde11610066578063b88d4fde14610284578063c87b56dd14610297578063e985e9c5146102aa57600080fd5b8063a22cb4651461025e578063b13825f71461027157600080fd5b80636a6278421461021057806370a08231146102305780637f98efc61461024357806395d89b411461025657600080fd5b806323b872dd11610109578063453a2abc116100ee578063453a2abc146101d457806361b3619c146101ea5780636352211e146101fd57600080fd5b806323b872dd146101ae57806342842e0e146101c157600080fd5b806301ffc9a71461013b57806306fdde0314610164578063081812fc14610179578063095ea7b314610199575b600080fd5b61014e610149366004611539565b6102e6565b60405161015b9190611564565b60405180910390f35b61016c6103cb565b60405161015b91906115c8565b61018c6101873660046115ea565b61045d565b60405161015b9190611625565b6101ac6101a7366004611647565b610484565b005b6101ac6101bc366004611684565b610512565b6101ac6101cf366004611684565b610543565b6101dc61055e565b60405161015b9291906116d4565b6101ac6101f83660046116f4565b6105ff565b61018c61020b3660046115ea565b610681565b61022361021e3660046116f4565b6106b6565b60405161015b919061171b565b61022361023e3660046116f4565b610756565b61016c610251366004611729565b61079a565b61016c6107f3565b6101ac61026c36600461175e565b610802565b6101ac61027f3660046117a5565b610811565b6101ac6102923660046118bc565b610876565b61016c6102a53660046115ea565b6108ae565b61014e6102b836600461193b565b6001600160a01b03918216600090815260056020908152604080832093909416825291909152205460ff1690565b60007fffffffff0000000000000000000000000000000000000000000000000000000082167f80ac58cd00000000000000000000000000000000000000000000000000000000148061037957507fffffffff0000000000000000000000000000000000000000000000000000000082167f5b5e139f00000000000000000000000000000000000000000000000000000000145b806103c557507f01ffc9a7000000000000000000000000000000000000000000000000000000007fffffffff000000000000000000000000000000000000000000000000000000008316145b92915050565b6060600080546103da90611984565b80601f016020809104026020016040519081016040528092919081815260200182805461040690611984565b80156104535780601f1061042857610100808354040283529160200191610453565b820191906000526020600020905b81548152906001019060200180831161043657829003601f168201915b5050505050905090565b6000610468826108f8565b506000908152600460205260409020546001600160a01b031690565b600061048f82610681565b9050806001600160a01b0316836001600160a01b0316036104cb5760405162461bcd60e51b81526004016104c290611a0a565b60405180910390fd5b336001600160a01b03821614806104e757506104e781336102b8565b6105035760405162461bcd60e51b81526004016104c290611a72565b61050d838361092c565b505050565b61051c33826109a7565b6105385760405162461bcd60e51b81526004016104c290611ada565b61050d838383610a26565b61050d83838360405180602001604052806000815250610876565b600a8054600b80546001600160a01b03909216929161057c90611984565b80601f01602080910402602001604051908101604052809291908181526020018280546105a890611984565b80156105f55780601f106105ca576101008083540402835291602001916105f5565b820191906000526020600020905b8154815290600101906020018083116105d857829003601f168201915b5050505050905082565b6006546001600160a01b031633146106295760405162461bcd60e51b81526004016104c290611b1e565b600c546001600160a01b0316156106525760405162461bcd60e51b81526004016104c290611b60565b600c805473ffffffffffffffffffffffffffffffffffffffff19166001600160a01b0392909216919091179055565b6000818152600260205260408120546001600160a01b0316806103c55760405162461bcd60e51b81526004016104c290611ba2565b600c546000906001600160a01b031633146106e35760405162461bcd60e51b81526004016104c290611be4565b6001600160a01b038216600090815260036020526040902054156107195760405162461bcd60e51b81526004016104c290611c26565b506009546107278282610b79565b6001600160a01b038216600090815260036020526040902060019055610751600980546001019055565b919050565b60006001600160a01b03821661077e5760405162461bcd60e51b81526004016104c290611c8e565b506001600160a01b031660009081526003602052604090205490565b60606107a560085490565b82106107c35760405162461bcd60e51b81526004016104c290611cd0565b6107ce600484611cf6565b60008381526007602052604090209093506107ec908490600b610c81565b9392505050565b6060600180546103da90611984565b61080d338383610daf565b5050565b600a546001600160a01b0316331461083b5760405162461bcd60e51b81526004016104c290611d3c565b806007600061084960085490565b815260208101919091526040016000206108649160056114ac565b50610873600880546001019055565b50565b61088033836109a7565b61089c5760405162461bcd60e51b81526004016104c290611ada565b6108a884848484610e51565b50505050565b60606108b9826108f8565b6103c560006007600060016108cd60085490565b6108d79190611d62565b8152602001908152602001600020600a600101610c81565b80546001019055565b6000818152600260205260409020546001600160a01b03166108735760405162461bcd60e51b81526004016104c290611ba2565b6000818152600460205260409020805473ffffffffffffffffffffffffffffffffffffffff19166001600160a01b038416908117909155819061096e82610681565b6001600160a01b03167f8c5be1e5ebec7d5bd14f71427d1e84f3dd0314c0f7b2291e5b200ac8c7c3b92560405160405180910390a45050565b6000806109b383610681565b9050806001600160a01b0316846001600160a01b031614806109fa57506001600160a01b0380821660009081526005602090815260408083209388168352929052205460ff165b80610a1e5750836001600160a01b0316610a138461045d565b6001600160a01b0316145b949350505050565b826001600160a01b0316610a3982610681565b6001600160a01b031614610a5f5760405162461bcd60e51b81526004016104c290611dcd565b6001600160a01b038216610a855760405162461bcd60e51b81526004016104c290611e35565b826001600160a01b0316610a9882610681565b6001600160a01b031614610abe5760405162461bcd60e51b81526004016104c290611dcd565b6000818152600460209081526040808320805473ffffffffffffffffffffffffffffffffffffffff199081169091556001600160a01b038781168086526003855283862080547fffffffffffffffffffffffffffffffffffffffffffffffffffffffffffffffff01905590871680865283862080546001019055868652600290945282852080549092168417909155905184937fddf252ad1be2c89b69c2b068fc378daa952ba7f163c4a11628f55a4df523b3ef91a4505050565b6001600160a01b038216610b9f5760405162461bcd60e51b81526004016104c290611e75565b6000818152600260205260409020546001600160a01b031615610bd45760405162461bcd60e51b81526004016104c290611eb7565b6000818152600260205260409020546001600160a01b031615610c095760405162461bcd60e51b81526004016104c290611eb7565b6001600160a01b0382166000818152600360209081526040808320805460010190558483526002909152808220805473ffffffffffffffffffffffffffffffffffffffff19168417905551839291907fddf252ad1be2c89b69c2b068fc378daa952ba7f163c4a11628f55a4df523b3ef908290a45050565b60408051808201909152600781526611a3232323232360c91b60208201526060906001859003610ce5575060408051808201909152600781527f23314532363244000000000000000000000000000000000000000000000000006020820152610d65565b84600203610d27575060408051808201909152600781527f23463646444442000000000000000000000000000000000000000000000000006020820152610d65565b84600303610d65575060408051808201909152600781527f234532423642460000000000000000000000000000000000000000000000000060208201525b80610d708685610e84565b610d7987610fa9565b610d838888611191565b604051602001610d969493929190611f65565b6040516020818303038152906040529150509392505050565b816001600160a01b0316836001600160a01b031603610de05760405162461bcd60e51b81526004016104c290612150565b6001600160a01b0383811660008181526005602090815260408083209487168084529490915290819020805460ff1916851515179055517f17307eab39ab6107e8899845ad3d59bd9653f200f220920489ca2b5937696c3190610e44908590611564565b60405180910390a3505050565b610e5c848484610a26565b610e6884848484611361565b6108a85760405162461bcd60e51b81526004016104c2906121b8565b60408051808201909152600781527f233234323632420000000000000000000000000000000000000000000000000060208201526060906001849003610efe575060408051808201909152600781527f23463746454443000000000000000000000000000000000000000000000000006020820152610f7e565b83600203610f40575060408051808201909152600781527f23324633413339000000000000000000000000000000000000000000000000006020820152610f7e565b83600303610f7e575060408051808201909152600781527f233543324532440000000000000000000000000000000000000000000000000060208201525b8083604051602001610f9192919061223a565b60405160208183030381529060405291505092915050565b60408051808201825260078082527f234535414144330000000000000000000000000000000000000000000000000060208084019190915283518085019094529083527f2344443945434400000000000000000000000000000000000000000000000000908301526060916001849003611092576040518060400160405280600781526020017f233541423741430000000000000000000000000000000000000000000000000081525091506040518060400160405280600781526020017f2333333737373000000000000000000000000000000000000000000000000000815250905061115c565b8360020361110f576040518060400160405280600781526020017f234234443836340000000000000000000000000000000000000000000000000081525091506040518060400160405280600781526020017f2342344438363400000000000000000000000000000000000000000000000000815250905061115c565b8360030361115c576040518060400160405280600781526020016611a3232323232360c91b81525091506040518060400160405280600781526020016611a3232323232360c91b81525090505b818182838485866040516020016111799796959493929190612591565b60405160208183030381529060405292505050919050565b60408051808201909152600781527f23323432363242000000000000000000000000000000000000000000000000006020820152606090600184900361120b575060408051808201909152600781527f2346374645444300000000000000000000000000000000000000000000000000602082015261128b565b8360020361124d575060408051808201909152600781527f2332463341333900000000000000000000000000000000000000000000000000602082015261128b565b8360030361128b575060408051808201909152600781527f233543324532440000000000000000000000000000000000000000000000000060208201525b808084600001546040516020016112a291906127be565b60408051601f198184030181529190528386600101546040516020016112c891906127be565b60408051601f198184030181529190528588600201546040516020016112ee91906127be565b60408051601f19818403018152919052878a6003015460405160200161131491906127be565b60408051601f19818403018152919052898c6004015460405160200161133a91906127be565b60408051601f1981840301815290829052610f919b9a99989796959493929160200161295a565b60006001600160a01b0384163b156114a1576040517f150b7a020000000000000000000000000000000000000000000000000000000081526001600160a01b0385169063150b7a02906113be903390899088908890600401612c2b565b6020604051808303816000875af19250505080156113f9575060408051601f3d908101601f191682019092526113f691810190612c7a565b60015b611456573d808015611427576040519150601f19603f3d011682016040523d82523d6000602084013e61142c565b606091505b50805160000361144e5760405162461bcd60e51b81526004016104c2906121b8565b805181602001fd5b7fffffffff00000000000000000000000000000000000000000000000000000000167f150b7a0200000000000000000000000000000000000000000000000000000000149050610a1e565b506001949350505050565b82600581019282156114da579160200282015b828111156114da5782358255916020019190600101906114bf565b506114e69291506114ea565b5090565b5b808211156114e657600081556001016114eb565b7fffffffff0000000000000000000000000000000000000000000000000000000081165b811461087357600080fd5b80356103c5816114ff565b60006020828403121561154e5761154e600080fd5b6000610a1e848461152e565b8015155b82525050565b602081016103c5828461155a565b60005b8381101561158d578181015183820152602001611575565b50506000910152565b60006115a0825190565b8084526020840193506115b7818560208601611572565b601f01601f19169290920192915050565b602080825281016107ec8184611596565b80611523565b80356103c5816115d9565b6000602082840312156115ff576115ff600080fd5b6000610a1e84846115df565b60006001600160a01b0382166103c5565b61155e8161160b565b602081016103c5828461161c565b6115238161160b565b80356103c581611633565b6000806040838503121561165d5761165d600080fd5b6000611669858561163c565b925050602061167a858286016115df565b9150509250929050565b60008060006060848603121561169c5761169c600080fd5b60006116a8868661163c565b93505060206116b98682870161163c565b92505060406116ca868287016115df565b9150509250925092565b604081016116e2828561161c565b8181036020830152610a1e8184611596565b60006020828403121561170957611709600080fd5b6000610a1e848461163c565b8061155e565b602081016103c58284611715565b6000806040838503121561173f5761173f600080fd5b600061166985856115df565b801515611523565b80356103c58161174b565b6000806040838503121561177457611774600080fd5b6000611780858561163c565b925050602061167a85828601611753565b8060a081018310156103c5576103c5600080fd5b600060a082840312156117ba576117ba600080fd5b6000610a1e8484611791565b634e487b7160e01b600052604160045260246000fd5b601f19601f830116810181811067ffffffffffffffff82111715611802576118026117c6565b6040525050565b600061181460405190565b905061075182826117dc565b600067ffffffffffffffff82111561183a5761183a6117c6565b601f19601f83011660200192915050565b82818337506000910152565b600061186a61186584611820565b611809565b90508281526020810184848401111561188557611885600080fd5b61189084828561184b565b509392505050565b600082601f8301126118ac576118ac600080fd5b8135610a1e848260208601611857565b600080600080608085870312156118d5576118d5600080fd5b60006118e1878761163c565b94505060206118f28782880161163c565b9350506040611903878288016115df565b925050606085013567ffffffffffffffff81111561192357611923600080fd5b61192f87828801611898565b91505092959194509250565b6000806040838503121561195157611951600080fd5b600061195d858561163c565b925050602061167a8582860161163c565b634e487b7160e01b600052602260045260246000fd5b60028104600182168061199857607f821691505b6020821081036119aa576119aa61196e565b50919050565b60218152602081017f4552433732313a20617070726f76616c20746f2063757272656e74206f776e6581527f7200000000000000000000000000000000000000000000000000000000000000602082015290505b60400190565b602080825281016103c5816119b0565b603d8152602081017f4552433732313a20617070726f76652063616c6c6572206973206e6f7420746f81527f6b656e206f776e6572206f7220617070726f76656420666f7220616c6c00000060208201529050611a04565b602080825281016103c581611a1a565b602d8152602081017f4552433732313a2063616c6c6572206973206e6f7420746f6b656e206f776e6581527f72206f7220617070726f7665640000000000000000000000000000000000000060208201529050611a04565b602080825281016103c581611a82565b600c8152602081017f4f6e6c7920666163746f72790000000000000000000000000000000000000000815290505b60200190565b602080825281016103c581611aea565b600b8152602081017f416c72656164792073657400000000000000000000000000000000000000000081529050611b18565b602080825281016103c581611b2e565b60188152602081017f4552433732313a20696e76616c696420746f6b656e204944000000000000000081529050611b18565b602080825281016103c581611b70565b600f8152602081017f4f6e6c792066756e64726169736572000000000000000000000000000000000081529050611b18565b602080825281016103c581611bb2565b600e8152602081017f416c7265616479206d696e74656400000000000000000000000000000000000081529050611b18565b602080825281016103c581611bf4565b60298152602081017f4552433732313a2061646472657373207a65726f206973206e6f74206120766181527f6c6964206f776e6572000000000000000000000000000000000000000000000060208201529050611a04565b602080825281016103c581611c36565b600c8152602081017f446f65736e74206578697374000000000000000000000000000000000000000081529050611b18565b602080825281016103c581611c9e565b634e487b7160e01b600052601260045260246000fd5b600082611d0557611d05611ce0565b500690565b600b8152602081017f4f6e6c792077726974657200000000000000000000000000000000000000000081529050611b18565b602080825281016103c581611d0a565b634e487b7160e01b600052601160045260246000fd5b818103818111156103c5576103c5611d4c565b60258152602081017f4552433732313a207472616e736665722066726f6d20696e636f72726563742081527f6f776e657200000000000000000000000000000000000000000000000000000060208201529050611a04565b602080825281016103c581611d75565b60248152602081017f4552433732313a207472616e7366657220746f20746865207a65726f2061646481527f726573730000000000000000000000000000000000000000000000000000000060208201529050611a04565b602080825281016103c581611ddd565b60208082527f4552433732313a206d696e7420746f20746865207a65726f20616464726573739101908152611b18565b602080825281016103c581611e45565b601c8152602081017f4552433732313a20746f6b656e20616c7265616479206d696e7465640000000081529050611b18565b602080825281016103c581611e85565b7f3c673e000000000000000000000000000000000000000000000000000000000081525b60030190565b6000611efb825190565b611f09818560208601611572565b9290920192915050565b7f3b222f3e0000000000000000000000000000000000000000000000000000000081525b60040190565b7f3c2f673e000000000000000000000000000000000000000000000000000000008152611f37565b7f3c7376672069643d224c617965725f322220646174612d6e616d653d224c617981527f657220322220786d6c6e733d22687474703a2f2f7777772e77332e6f72672f3260208201527f3030302f737667222076696577426f783d2230203020333435203436352e363660408201527f223e00000000000000000000000000000000000000000000000000000000000060608201527f3c672069643d224c617965725f312d322220646174612d6e616d653d224c617960628201527f65722031223e0000000000000000000000000000000000000000000000000000608282015260880161205281611ec7565b7f3c726563742077696474683d2233343522206865696768743d2234363522207281527f783d223137222072793d22313722207374796c653d2266696c6c3a20000000006020820152603c0190506120aa8186611ef1565b90506120b581611f13565b90506120c18185611ef1565b90506120cd8184611ef1565b90506120d98183611ef1565b90506120e481611f3d565b90506120ef81611f3d565b7f3c2f7376673e0000000000000000000000000000000000000000000000000000815260060195945050505050565b60198152602081017f4552433732313a20617070726f766520746f2063616c6c65720000000000000081529050611b18565b602080825281016103c58161211e565b60328152602081017f4552433732313a207472616e7366657220746f206e6f6e20455243373231526581527f63656976657220696d706c656d656e746572000000000000000000000000000060208201529050611a04565b602080825281016103c581612160565b600081546121d581611984565b6001821680156121ec576001811461220157612231565b60ff1983168652811515820286019350612231565b60008581526020902060005b838110156122295781548882015260019091019060200161220d565b505081860193505b50505092915050565b7f3c74657874207472616e73666f726d3d227472616e736c6174652836352e323681527f203434312e33352922207374796c653d2266696c6c3a2000000000000000000060208201526037016122908184611ef1565b7f3b20666f6e742d66616d696c793a20506f7070696e732d53656d69426f6c642c81527f20506f7070696e733b20666f6e742d73697a653a20343170783b20666f6e742d60208201527f7765696768743a203630303b206c65747465722d73706163696e673a202d2e3060408201527f34656d3b223e3c747370616e20783d22302220793d222d3138223e00000000006060820152607b01905061233481836121c8565b7f3c2f747370616e3e3c2f746578743e000000000000000000000000000000000081529050600f81016107ec565b7f3b207374726f6b652d6d697465726c696d69743a2031303b222f3e000000000081525b601b0190565b7f3c6c696e652078313d2233322e3731222079313d223134362e3833222078323d81527f223331302e3837222079323d223134362e383322207374796c653d2266696c6c60208201526f01d103737b7329d9039ba3937b5b29d160851b60408201525b60500190565b7f3c6c696e652078313d2233322e3731222079313d223139302e3838222078323d81527f223331302e3837222079323d223139302e383822207374796c653d2266696c6c60208201526f01d103737b7329d9039ba3937b5b29d160851b60408201526123ef565b7f3c6c696e652078313d2233322e3731222079313d223233342e3932222078323d81527f223331302e3837222079323d223233342e393222207374796c653d2266696c6c60208201526f01d103737b7329d9039ba3937b5b29d160851b60408201526123ef565b7f3c6c696e652078313d2233322e3731222079313d223237382e3937222078323d81527f223331302e3837222079323d223237382e393722207374796c653d2266696c6c60208201526f01d103737b7329d9039ba3937b5b29d160851b60408201526123ef565b7f3c6c696e652078313d2233322e3731222079313d223332332e3031222078323d81527f223331302e3837222079323d223332332e303122207374796c653d2266696c6c60208201526f01d103737b7329d9039ba3937b5b29d160851b60408201526123ef565b7f3c74657874207472616e73666f726d3d227472616e736c617465283238332e3281527f35203430312e38392922207374796c653d2266696c6c3a20000000000000000060208201526038016125e78189611ef1565b7f3b20666f6e742d66616d696c793a20506f7070696e732d526567756c61722c2081527f506f7070696e733b20666f6e742d73697a653a20313470783b223e3c7473706160208201527f6e20783d222d31342220793d222d3138223e46524f4d3c2f747370616e3e3c2f60408201527f746578743e00000000000000000000000000000000000000000000000000000060608201527f3c6c696e652078313d2233322e3731222079313d2238322e3738222078323d2260658201527f3230302e3838222079323d2238322e373822207374796c653d2266696c6c3a2060858201527f6e6f6e653b207374726f6b653a2000000000000000000000000000000000000060a582015260b30190506126fd8188611ef1565b905061270881612362565b90506127138161238c565b905061271f8187611ef1565b905061272a81612362565b9050612735816123f5565b90506127418186611ef1565b905061274c81612362565b90506127578161245c565b90506127638185611ef1565b905061276e81612362565b9050612779816124c3565b90506127858184611ef1565b905061279081612362565b905061279b8161252a565b90506127a78183611ef1565b90506127b281612362565b98975050505050505050565b6127c88183611715565b602001919050565b7f3b223e446561722c204d7920667269656e642e3c2f747370616e3e00000000008152612386565b7f3b223e00000000000000000000000000000000000000000000000000000000008152611eeb565b7f3c747370616e20783d2231352220793d2231303822207374796c653d226c657481527f7465722d73706163696e673a202e3032656d3b2066696c6c3a2000000000000060208201525b603a0190565b7f3c747370616e20783d2231352220793d2231353222207374796c653d226c657481527f7465722d73706163696e673a202e3032656d3b2066696c6c3a20000000000000602082015261286a565b7f3c747370616e20783d2231352220793d2231393622207374796c653d226c657481527f7465722d73706163696e673a202e3032656d3b2066696c6c3a20000000000000602082015261286a565b7f3c747370616e20783d2231352220793d2232343022207374796c653d226c657481527f7465722d73706163696e673a202e3032656d3b2066696c6c3a20000000000000602082015261286a565b7f3c74657874207472616e73666f726d3d227472616e736c6174652832342e342081527f37332e36362922207374796c653d2266696c6c3a20233234323632623b20666f60208201527f6e742d66616d696c793a20534650726f446973706c61792d526567756c61722c60408201527f202661706f733b53462050726f20446973706c61792661706f733b3b20666f6e60608201527f742d73697a653a20313870783b223e000000000000000000000000000000000060808201527f3c747370616e20783d2231352220793d223022207374796c653d2266696c6c3a608f8201527f200000000000000000000000000000000000000000000000000000000000000060af82015260b001612a6e818d611ef1565b9050612a79816127d0565b7f3c747370616e20783d2231352220793d22363422207374796c653d226c65747481527f65722d73706163696e673a202e3032656d3b2066696c6c3a200000000000000060208201526039019050612ad1818c611ef1565b9050612adc816127f8565b9050612ae8818b611ef1565b671e17ba39b830b71f60c11b81526008019050612b0481612820565b9050612b10818a611ef1565b9050612b1b816127f8565b9050612b278189611ef1565b671e17ba39b830b71f60c11b81526008019050612b4381612870565b9050612b4f8188611ef1565b9050612b5a816127f8565b9050612b668187611ef1565b671e17ba39b830b71f60c11b81526008019050612b82816128be565b9050612b8e8186611ef1565b9050612b99816127f8565b9050612ba58185611ef1565b671e17ba39b830b71f60c11b81526008019050612bc18161290c565b9050612bcd8184611ef1565b9050612bd8816127f8565b9050612be48183611ef1565b671e17ba39b830b71f60c11b81527f3c2f746578743e000000000000000000000000000000000000000000000000006008820152600f019c9b505050505050505050505050565b60808101612c39828761161c565b612c46602083018661161c565b612c536040830185611715565b8181036060830152612c658184611596565b9695505050505050565b80516103c5816114ff565b600060208284031215612c8f57612c8f600080fd5b6000610a1e8484612c6f56fea26469706673582212200897faa16b4727456f0b96a0af106083afc544f63d29c98e84c7b19d6e06da5364736f6c63430008120033",
  "linkReferences": {},
  "deployedLinkReferences": {}
}