{
  "_format": "hh-sol-artifact-1",
  "contractName": "DonaFT",
  "sourceName": "contracts/DonaFT.sol",
  "abi": [
    {
      "inputs": [
        {
          "internalType": "address",
          "name": "factoryAddr_",
          "type": "address"
        },
        {
          "internalType": "string",
          "name": "firstName_",
          "type": "string"
        },
        {
          "internalType": "string",
          "name": "lastName_",
          "type": "string"
        },
        {
          "internalType": "address",
          "name": "writerAddr_",
          "type": "address"
        }
      ],
      "stateMutability": "nonpayable",
      "type": "constructor"
    },
    {
      "anonymous": false,
      "inputs": [
        {
          "indexed": true,
          "internalType": "address",
          "name": "owner",
          "type": "address"
        },
        {
          "indexed": true,
          "internalType": "address",
          "name": "approved",
          "type": "address"
        },
        {
          "indexed": true,
          "internalType": "uint256",
          "name": "tokenId",
          "type": "uint256"
        }
      ],
      "name": "Approval",
      "type": "event"
    },
    {
      "anonymous": false,
      "inputs": [
        {
          "indexed": true,
          "internalType": "address",
          "name": "owner",
          "type": "address"
        },
        {
          "indexed": true,
          "internalType": "address",
          "name": "operator",
          "type": "address"
        },
        {
          "indexed": false,
          "internalType": "bool",
          "name": "approved",
          "type": "bool"
        }
      ],
      "name": "ApprovalForAll",
      "type": "event"
    },
    {
      "anonymous": false,
      "inputs": [
        {
          "indexed": true,
          "internalType": "address",
          "name": "from",
          "type": "address"
        },
        {
          "indexed": true,
          "internalType": "address",
          "name": "to",
          "type": "address"
        },
        {
          "indexed": true,
          "internalType": "uint256",
          "name": "tokenId",
          "type": "uint256"
        }
      ],
      "name": "Transfer",
      "type": "event"
    },
    {
      "inputs": [
        {
          "internalType": "address",
          "name": "to",
          "type": "address"
        },
        {
          "internalType": "uint256",
          "name": "tokenId",
          "type": "uint256"
        }
      ],
      "name": "approve",
      "outputs": [],
      "stateMutability": "nonpayable",
      "type": "function"
    },
    {
      "inputs": [
        {
          "internalType": "address",
          "name": "owner",
          "type": "address"
        }
      ],
      "name": "balanceOf",
      "outputs": [
        {
          "internalType": "uint256",
          "name": "",
          "type": "uint256"
        }
      ],
      "stateMutability": "view",
      "type": "function"
    },
    {
      "inputs": [
        {
          "internalType": "uint256",
          "name": "tokenId",
          "type": "uint256"
        }
      ],
      "name": "getApproved",
      "outputs": [
        {
          "internalType": "address",
          "name": "",
          "type": "address"
        }
      ],
      "stateMutability": "view",
      "type": "function"
    },
    {
      "inputs": [
        {
          "internalType": "address",
          "name": "owner",
          "type": "address"
        },
        {
          "internalType": "address",
          "name": "operator",
          "type": "address"
        }
      ],
      "name": "isApprovedForAll",
      "outputs": [
        {
          "internalType": "bool",
          "name": "",
          "type": "bool"
        }
      ],
      "stateMutability": "view",
      "type": "function"
    },
    {
      "inputs": [
        {
          "internalType": "uint256",
          "name": "letterType",
          "type": "uint256"
        },
        {
          "internalType": "uint256",
          "name": "letterId",
          "type": "uint256"
        }
      ],
      "name": "letterURI",
      "outputs": [
        {
          "internalType": "string",
          "name": "",
          "type": "string"
        }
      ],
      "stateMutability": "view",
      "type": "function"
    },
    {
      "inputs": [
        {
          "internalType": "address",
          "name": "ownerAddr",
          "type": "address"
        }
      ],
      "name": "mint",
      "outputs": [
        {
          "internalType": "uint256",
          "name": "tokenId",
          "type": "uint256"
        }
      ],
      "stateMutability": "nonpayable",
      "type": "function"
    },
    {
      "inputs": [],
      "name": "name",
      "outputs": [
        {
          "internalType": "string",
          "name": "",
          "type": "string"
        }
      ],
      "stateMutability": "view",
      "type": "function"
    },
    {
      "inputs": [
        {
          "internalType": "uint256",
          "name": "tokenId",
          "type": "uint256"
        }
      ],
      "name": "ownerOf",
      "outputs": [
        {
          "internalType": "address",
          "name": "",
          "type": "address"
        }
      ],
      "stateMutability": "view",
      "type": "function"
    },
    {
      "inputs": [
        {
          "internalType": "address",
          "name": "from",
          "type": "address"
        },
        {
          "internalType": "address",
          "name": "to",
          "type": "address"
        },
        {
          "internalType": "uint256",
          "name": "tokenId",
          "type": "uint256"
        }
      ],
      "name": "safeTransferFrom",
      "outputs": [],
      "stateMutability": "nonpayable",
      "type": "function"
    },
    {
      "inputs": [
        {
          "internalType": "address",
          "name": "from",
          "type": "address"
        },
        {
          "internalType": "address",
          "name": "to",
          "type": "address"
        },
        {
          "internalType": "uint256",
          "name": "tokenId",
          "type": "uint256"
        },
        {
          "internalType": "bytes",
          "name": "data",
          "type": "bytes"
        }
      ],
      "name": "safeTransferFrom",
      "outputs": [],
      "stateMutability": "nonpayable",
      "type": "function"
    },
    {
      "inputs": [
        {
          "internalType": "address",
          "name": "operator",
          "type": "address"
        },
        {
          "internalType": "bool",
          "name": "approved",
          "type": "bool"
        }
      ],
      "name": "setApprovalForAll",
      "outputs": [],
      "stateMutability": "nonpayable",
      "type": "function"
    },
    {
      "inputs": [
        {
          "internalType": "address",
          "name": "fundraiser_",
          "type": "address"
        }
      ],
      "name": "setFundraiser",
      "outputs": [],
      "stateMutability": "nonpayable",
      "type": "function"
    },
    {
      "inputs": [
        {
          "internalType": "bytes4",
          "name": "interfaceId",
          "type": "bytes4"
        }
      ],
      "name": "supportsInterface",
      "outputs": [
        {
          "internalType": "bool",
          "name": "",
          "type": "bool"
        }
      ],
      "stateMutability": "view",
      "type": "function"
    },
    {
      "inputs": [],
      "name": "symbol",
      "outputs": [
        {
          "internalType": "string",
          "name": "",
          "type": "string"
        }
      ],
      "stateMutability": "view",
      "type": "function"
    },
    {
      "inputs": [
        {
          "internalType": "uint256",
          "name": "tokenId",
          "type": "uint256"
        }
      ],
      "name": "tokenURI",
      "outputs": [
        {
          "internalType": "string",
          "name": "",
          "type": "string"
        }
      ],
      "stateMutability": "view",
      "type": "function"
    },
    {
      "inputs": [
        {
          "internalType": "address",
          "name": "from",
          "type": "address"
        },
        {
          "internalType": "address",
          "name": "to",
          "type": "address"
        },
        {
          "internalType": "uint256",
          "name": "tokenId",
          "type": "uint256"
        }
      ],
      "name": "transferFrom",
      "outputs": [],
      "stateMutability": "nonpayable",
      "type": "function"
    },
    {
      "inputs": [
        {
          "internalType": "string",
          "name": "contents",
          "type": "string"
        }
      ],
      "name": "updateLetter",
      "outputs": [],
      "stateMutability": "nonpayable",
      "type": "function"
    },
    {
      "inputs": [],
      "name": "writer",
      "outputs": [
        {
          "internalType": "address",
          "name": "writerAddr",
          "type": "address"
        },
        {
          "internalType": "string",
          "name": "writerName",
          "type": "string"
        }
      ],
      "stateMutability": "view",
      "type": "function"
    }
  ],
  "bytecode": "0x60806040523480156200001157600080fd5b5060405162003383380380620033838339810160408190526200003491620002fe565b82604051602001620000479190620003cd565b60408051601f19818403018152919052826000620000668382620004e6565b506001620000758282620004e6565b5050506040518060400160405280826001600160a01b031681526020018484604051602001620000a7929190620005b2565b60408051808303601f1901815291905290528051600a80546001600160a01b0319166001600160a01b039092169190911781556020820151600b90620000ee9082620004e6565b5050600680546001600160a01b0319166001600160a01b038716179055506040805160208082019092526000808252805260079091527f6d5257204ebe7d88fd91ae87941cb2dd9d8062b64ae5a2bd2d28ec40b9fbf6df90620001529082620004e6565b506200016a60086200018b60201b620008ed1760201c565b6200018160096200018b60201b620008ed1760201c565b50505050620005dd565b80546001019055565b60006001600160a01b0382165b92915050565b620001b28162000194565b8114620001be57600080fd5b50565b8051620001a181620001a7565b634e487b7160e01b600052604160045260246000fd5b601f19601f83011681016001600160401b03811182821017156200020c576200020c620001ce565b6040525050565b60006200021f60405190565b90506200022d8282620001e4565b919050565b60006001600160401b038211156200024e576200024e620001ce565b601f19601f83011660200192915050565b60005b838110156200027c57818101518382015260200162000262565b50506000910152565b60006200029c620002968462000232565b62000213565b905082815260208101848484011115620002b957620002b9600080fd5b620002c68482856200025f565b509392505050565b600082601f830112620002e457620002e4600080fd5b8151620002f684826020860162000285565b949350505050565b60008060008060808587031215620003195762000319600080fd5b6000620003278787620001c1565b602087015190955090506001600160401b038111156200034a576200034a600080fd5b6200035887828801620002ce565b604087015190945090506001600160401b038111156200037b576200037b600080fd5b6200038987828801620002ce565b92505060606200039c87828801620001c1565b91505092959194509250565b6000620003b3825190565b620003c38185602086016200025f565b9290920192915050565b6b02632ba3a32b910333937b6960a51b8152600c01620001a18183620003a8565b634e487b7160e01b600052602260045260246000fd5b6002810460018216806200041957607f821691505b6020821081036200042e576200042e620003ee565b50919050565b6000620001a1620004428381565b90565b620004508362000434565b815460001960089490940293841b1916921b91909117905550565b60006200047a81848462000445565b505050565b818110156200049e57620004956000826200046b565b6001016200047f565b5050565b601f8211156200047a576000818152602090206020601f85010481016020851015620004cb5750805b620004df6020601f8601048301826200047f565b5050505050565b81516001600160401b03811115620005025762000502620001ce565b6200050e825462000404565b6200051b828285620004a2565b506020601f8211600181146200055357600083156200053a5750848201515b600019600885021c1981166002850217855550620004df565b600084815260208120601f198516915b8281101562000585578785015182556020948501946001909201910162000563565b5084821015620005a35783870151600019601f87166008021c191681555b50505050600202600101905550565b620005be8184620003a8565b600160fd1b81526001019050620005d68183620003a8565b9392505050565b612d9680620005ed6000396000f3fe608060405234801561001057600080fd5b50600436106101365760003560e01c80636a627842116100b2578063a22cb46511610081578063c87b56dd11610066578063c87b56dd14610284578063d7883cca14610297578063e985e9c5146102aa57600080fd5b8063a22cb4651461025e578063b88d4fde1461027157600080fd5b80636a6278421461021057806370a08231146102305780637f98efc61461024357806395d89b411461025657600080fd5b806323b872dd11610109578063453a2abc116100ee578063453a2abc146101d457806361b3619c146101ea5780636352211e146101fd57600080fd5b806323b872dd146101ae57806342842e0e146101c157600080fd5b806301ffc9a71461013b57806306fdde0314610164578063081812fc14610179578063095ea7b314610199575b600080fd5b61014e6101493660046115ec565b6102e6565b60405161015b9190611617565b60405180910390f35b61016c6103cb565b60405161015b919061167b565b61018c61018736600461169d565b61045d565b60405161015b91906116d8565b6101ac6101a73660046116fa565b610484565b005b6101ac6101bc366004611737565b610512565b6101ac6101cf366004611737565b610543565b6101dc61055e565b60405161015b929190611787565b6101ac6101f83660046117a7565b6105ff565b61018c61020b36600461169d565b610681565b61022361021e3660046117a7565b6106b6565b60405161015b91906117ce565b61022361023e3660046117a7565b610756565b61016c6102513660046117dc565b61079a565b61016c6107f3565b6101ac61026c366004611811565b610802565b6101ac61027f36600461193a565b610811565b61016c61029236600461169d565b610849565b6101ac6102a5366004611a0b565b61088a565b61014e6102b8366004611a53565b6001600160a01b03918216600090815260056020908152604080832093909416825291909152205460ff1690565b60007fffffffff0000000000000000000000000000000000000000000000000000000082167f80ac58cd00000000000000000000000000000000000000000000000000000000148061037957507fffffffff0000000000000000000000000000000000000000000000000000000082167f5b5e139f00000000000000000000000000000000000000000000000000000000145b806103c557507f01ffc9a7000000000000000000000000000000000000000000000000000000007fffffffff000000000000000000000000000000000000000000000000000000008316145b92915050565b6060600080546103da90611a9c565b80601f016020809104026020016040519081016040528092919081815260200182805461040690611a9c565b80156104535780601f1061042857610100808354040283529160200191610453565b820191906000526020600020905b81548152906001019060200180831161043657829003601f168201915b5050505050905090565b6000610468826108f6565b506000908152600460205260409020546001600160a01b031690565b600061048f82610681565b9050806001600160a01b0316836001600160a01b0316036104cb5760405162461bcd60e51b81526004016104c290611b22565b60405180910390fd5b336001600160a01b03821614806104e757506104e781336102b8565b6105035760405162461bcd60e51b81526004016104c290611b8a565b61050d838361092d565b505050565b61051c33826109a8565b6105385760405162461bcd60e51b81526004016104c290611bf2565b61050d838383610a27565b61050d83838360405180602001604052806000815250610811565b600a8054600b80546001600160a01b03909216929161057c90611a9c565b80601f01602080910402602001604051908101604052809291908181526020018280546105a890611a9c565b80156105f55780601f106105ca576101008083540402835291602001916105f5565b820191906000526020600020905b8154815290600101906020018083116105d857829003601f168201915b5050505050905082565b6006546001600160a01b031633146106295760405162461bcd60e51b81526004016104c290611c36565b600c546001600160a01b0316156106525760405162461bcd60e51b81526004016104c290611c78565b600c805473ffffffffffffffffffffffffffffffffffffffff19166001600160a01b0392909216919091179055565b6000818152600260205260408120546001600160a01b0316806103c55760405162461bcd60e51b81526004016104c290611cba565b600c546000906001600160a01b031633146106e35760405162461bcd60e51b81526004016104c290611cfc565b6001600160a01b038216600090815260036020526040902054156107195760405162461bcd60e51b81526004016104c290611d3e565b506009546107278282610b5c565b6001600160a01b038216600090815260036020526040902060019055610751600980546001019055565b919050565b60006001600160a01b03821661077e5760405162461bcd60e51b81526004016104c290611da6565b506001600160a01b031660009081526003602052604090205490565b60606107a560085490565b82106107c35760405162461bcd60e51b81526004016104c290611de8565b6107ce600484611e0e565b60008381526007602052604090209093506107ec908490600b610c64565b9392505050565b6060600180546103da90611a9c565b61080d338383610ca7565b5050565b61081b33836109a8565b6108375760405162461bcd60e51b81526004016104c290611bf2565b61084384848484610d49565b50505050565b6060610854826108f6565b6103c5600260076000600161086860085490565b6108729190611e38565b8152602001908152602001600020600a600101610c64565b600a546001600160a01b031633146108b45760405162461bcd60e51b81526004016104c290611e7d565b8181600760006108c360085490565b815260200190815260200160002091826108de929190611f28565b5061080d600880546001019055565b80546001019055565b6000818152600260205260409020546001600160a01b031661092a5760405162461bcd60e51b81526004016104c290611cba565b50565b6000818152600460205260409020805473ffffffffffffffffffffffffffffffffffffffff19166001600160a01b038416908117909155819061096f82610681565b6001600160a01b03167f8c5be1e5ebec7d5bd14f71427d1e84f3dd0314c0f7b2291e5b200ac8c7c3b92560405160405180910390a45050565b6000806109b483610681565b9050806001600160a01b0316846001600160a01b031614806109fb57506001600160a01b0380821660009081526005602090815260408083209388168352929052205460ff165b80610a1f5750836001600160a01b0316610a148461045d565b6001600160a01b0316145b949350505050565b826001600160a01b0316610a3a82610681565b6001600160a01b031614610a605760405162461bcd60e51b81526004016104c290612045565b6001600160a01b038216610a865760405162461bcd60e51b81526004016104c2906120ad565b826001600160a01b0316610a9982610681565b6001600160a01b031614610abf5760405162461bcd60e51b81526004016104c290612045565b6000818152600460209081526040808320805473ffffffffffffffffffffffffffffffffffffffff199081169091556001600160a01b0387811680865260038552838620805460001901905590871680865283862080546001019055868652600290945282852080549092168417909155905184937fddf252ad1be2c89b69c2b068fc378daa952ba7f163c4a11628f55a4df523b3ef91a4505050565b6001600160a01b038216610b825760405162461bcd60e51b81526004016104c2906120ed565b6000818152600260205260409020546001600160a01b031615610bb75760405162461bcd60e51b81526004016104c29061212f565b6000818152600260205260409020546001600160a01b031615610bec5760405162461bcd60e51b81526004016104c29061212f565b6001600160a01b0382166000818152600360209081526040808320805460010190558483526002909152808220805473ffffffffffffffffffffffffffffffffffffffff19168417905551839291907fddf252ad1be2c89b69c2b068fc378daa952ba7f163c4a11628f55a4df523b3ef908290a45050565b60606000610c7b610c76868686610d7c565b610e91565b905080604051602001610c8e9190612161565b6040516020818303038152906040529150509392505050565b816001600160a01b0316836001600160a01b031603610cd85760405162461bcd60e51b81526004016104c2906121c3565b6001600160a01b0383811660008181526005602090815260408083209487168084529490915290819020805460ff1916851515179055517f17307eab39ab6107e8899845ad3d59bd9653f200f220920489ca2b5937696c3190610d3c908590611617565b60405180910390a3505050565b610d54848484610a27565b610d608484848461104b565b6108435760405162461bcd60e51b81526004016104c29061222b565b60408051808201909152600781526611a3232323232360c91b60208201526060906001859003610de0575060408051808201909152600781527f23314532363244000000000000000000000000000000000000000000000000006020820152610e60565b84600203610e22575060408051808201909152600781527f23463646444442000000000000000000000000000000000000000000000000006020820152610e60565b84600303610e60575060408051808201909152600781527f234532423642460000000000000000000000000000000000000000000000000060208201525b80610e6b8685611196565b610e74876112bb565b610e7e88886114a3565b604051602001610c8e94939291906122b7565b60608151600003610eb057505060408051602081019091526000815290565b6000604051806060016040528060408152602001612d216040913990506000600384516002610edf9190612470565b610ee99190612483565b610ef4906004612497565b90506000610f03826020612470565b67ffffffffffffffff811115610f1b57610f1b611844565b6040519080825280601f01601f191660200182016040528015610f45576020820181803683370190505b509050818152600183018586518101602084015b81831015610fb1576003830192508251603f8160121c168501518253600182019150603f81600c1c168501518253600182019150603f8160061c168501518253600182019150603f8116850151825350600101610f59565b600389510660018114610fcb57600281146110155761103d565b7f3d3d0000000000000000000000000000000000000000000000000000000000007ffffffffffffffffffffffffffffffffffffffffffffffffffffffffffffffffe83015261103d565b7f3d000000000000000000000000000000000000000000000000000000000000006000198301525b509398975050505050505050565b60006001600160a01b0384163b1561118b576040517f150b7a020000000000000000000000000000000000000000000000000000000081526001600160a01b0385169063150b7a02906110a89033908990889088906004016124ae565b6020604051808303816000875af19250505080156110e3575060408051601f3d908101601f191682019092526110e0918101906124fd565b60015b611140573d808015611111576040519150601f19603f3d011682016040523d82523d6000602084013e611116565b606091505b5080516000036111385760405162461bcd60e51b81526004016104c29061222b565b805181602001fd5b7fffffffff00000000000000000000000000000000000000000000000000000000167f150b7a0200000000000000000000000000000000000000000000000000000000149050610a1f565b506001949350505050565b60408051808201909152600781527f233234323632420000000000000000000000000000000000000000000000000060208201526060906001849003611210575060408051808201909152600781527f23463746454443000000000000000000000000000000000000000000000000006020820152611290565b83600203611252575060408051808201909152600781527f23324633413339000000000000000000000000000000000000000000000000006020820152611290565b83600303611290575060408051808201909152600781527f233543324532440000000000000000000000000000000000000000000000000060208201525b80836040516020016112a3929190612590565b60405160208183030381529060405291505092915050565b60408051808201825260078082527f234535414144330000000000000000000000000000000000000000000000000060208084019190915283518085019094529083527f23444439454344000000000000000000000000000000000000000000000000009083015260609160018490036113a4576040518060400160405280600781526020017f233541423741430000000000000000000000000000000000000000000000000081525091506040518060400160405280600781526020017f2333333737373000000000000000000000000000000000000000000000000000815250905061146e565b83600203611421576040518060400160405280600781526020017f234234443836340000000000000000000000000000000000000000000000000081525091506040518060400160405280600781526020017f2342344438363400000000000000000000000000000000000000000000000000815250905061146e565b8360030361146e576040518060400160405280600781526020016611a3232323232360c91b81525091506040518060400160405280600781526020016611a3232323232360c91b81525090505b8181828384858660405160200161148b97969594939291906128e7565b60405160208183030381529060405292505050919050565b60408051808201909152600781527f23323432363242000000000000000000000000000000000000000000000000006020820152606090600184900361151d575060408051808201909152600781527f2346374645444300000000000000000000000000000000000000000000000000602082015261159d565b8360020361155f575060408051808201909152600781527f2332463341333900000000000000000000000000000000000000000000000000602082015261159d565b8360030361159d575060408051808201909152600781527f233543324532440000000000000000000000000000000000000000000000000060208201525b8081846040516020016112a393929190612b64565b7fffffffff0000000000000000000000000000000000000000000000000000000081165b811461092a57600080fd5b80356103c5816115b2565b60006020828403121561160157611601600080fd5b6000610a1f84846115e1565b8015155b82525050565b602081016103c5828461160d565b60005b83811015611640578181015183820152602001611628565b50506000910152565b6000611653825190565b80845260208401935061166a818560208601611625565b601f01601f19169290920192915050565b602080825281016107ec8184611649565b806115d6565b80356103c58161168c565b6000602082840312156116b2576116b2600080fd5b6000610a1f8484611692565b60006001600160a01b0382166103c5565b611611816116be565b602081016103c582846116cf565b6115d6816116be565b80356103c5816116e6565b6000806040838503121561171057611710600080fd5b600061171c85856116ef565b925050602061172d85828601611692565b9150509250929050565b60008060006060848603121561174f5761174f600080fd5b600061175b86866116ef565b935050602061176c868287016116ef565b925050604061177d86828701611692565b9150509250925092565b6040810161179582856116cf565b8181036020830152610a1f8184611649565b6000602082840312156117bc576117bc600080fd5b6000610a1f84846116ef565b80611611565b602081016103c582846117c8565b600080604083850312156117f2576117f2600080fd5b600061171c8585611692565b8015156115d6565b80356103c5816117fe565b6000806040838503121561182757611827600080fd5b600061183385856116ef565b925050602061172d85828601611806565b634e487b7160e01b600052604160045260246000fd5b601f19601f830116810181811067ffffffffffffffff8211171561188057611880611844565b6040525050565b600061189260405190565b9050610751828261185a565b600067ffffffffffffffff8211156118b8576118b8611844565b601f19601f83011660200192915050565b82818337506000910152565b60006118e86118e38461189e565b611887565b90508281526020810184848401111561190357611903600080fd5b61190e8482856118c9565b509392505050565b600082601f83011261192a5761192a600080fd5b8135610a1f8482602086016118d5565b6000806000806080858703121561195357611953600080fd5b600061195f87876116ef565b9450506020611970878288016116ef565b935050604061198187828801611692565b925050606085013567ffffffffffffffff8111156119a1576119a1600080fd5b6119ad87828801611916565b91505092959194509250565b60008083601f8401126119ce576119ce600080fd5b50813567ffffffffffffffff8111156119e9576119e9600080fd5b602083019150836001820283011115611a0457611a04600080fd5b9250929050565b60008060208385031215611a2157611a21600080fd5b823567ffffffffffffffff811115611a3b57611a3b600080fd5b611a47858286016119b9565b92509250509250929050565b60008060408385031215611a6957611a69600080fd5b6000611a7585856116ef565b925050602061172d858286016116ef565b634e487b7160e01b600052602260045260246000fd5b600281046001821680611ab057607f821691505b602082108103611ac257611ac2611a86565b50919050565b60218152602081017f4552433732313a20617070726f76616c20746f2063757272656e74206f776e6581527f7200000000000000000000000000000000000000000000000000000000000000602082015290505b60400190565b602080825281016103c581611ac8565b603d8152602081017f4552433732313a20617070726f76652063616c6c6572206973206e6f7420746f81527f6b656e206f776e6572206f7220617070726f76656420666f7220616c6c00000060208201529050611b1c565b602080825281016103c581611b32565b602d8152602081017f4552433732313a2063616c6c6572206973206e6f7420746f6b656e206f776e6581527f72206f7220617070726f7665640000000000000000000000000000000000000060208201529050611b1c565b602080825281016103c581611b9a565b600c8152602081017f4f6e6c7920666163746f72790000000000000000000000000000000000000000815290505b60200190565b602080825281016103c581611c02565b600b8152602081017f416c72656164792073657400000000000000000000000000000000000000000081529050611c30565b602080825281016103c581611c46565b60188152602081017f4552433732313a20696e76616c696420746f6b656e204944000000000000000081529050611c30565b602080825281016103c581611c88565b600f8152602081017f4f6e6c792066756e64726169736572000000000000000000000000000000000081529050611c30565b602080825281016103c581611cca565b600e8152602081017f416c7265616479206d696e74656400000000000000000000000000000000000081529050611c30565b602080825281016103c581611d0c565b60298152602081017f4552433732313a2061646472657373207a65726f206973206e6f74206120766181527f6c6964206f776e6572000000000000000000000000000000000000000000000060208201529050611b1c565b602080825281016103c581611d4e565b600c8152602081017f446f65736e74206578697374000000000000000000000000000000000000000081529050611c30565b602080825281016103c581611db6565b634e487b7160e01b600052601260045260246000fd5b600082611e1d57611e1d611df8565b500690565b634e487b7160e01b600052601160045260246000fd5b818103818111156103c5576103c5611e22565b600b8152602081017f4f6e6c792077726974657200000000000000000000000000000000000000000081529050611c30565b602080825281016103c581611e4b565b60006103c5611e998381565b90565b611ea583611e8d565b815460001960089490940293841b1916921b91909117905550565b600061050d818484611e9c565b8181101561080d57611ee0600082611ec0565b600101611ecd565b601f82111561050d576000818152602090206020601f85010481016020851015611f0f5750805b611f216020601f860104830182611ecd565b5050505050565b8267ffffffffffffffff811115611f4157611f41611844565b611f4b8254611a9c565b611f56828285611ee8565b506000601f821160018114611f8b5760008315611f735750848201355b600019600885021c1981166002850217855550611fe5565b600084815260209020601f19841690835b82811015611fbc5787850135825560209485019460019092019101611f9c565b5084821015611fd957600019601f86166008021c19848801351681555b50506001600284020184555b505050505050565b60258152602081017f4552433732313a207472616e736665722066726f6d20696e636f72726563742081527f6f776e657200000000000000000000000000000000000000000000000000000060208201529050611b1c565b602080825281016103c581611fed565b60248152602081017f4552433732313a207472616e7366657220746f20746865207a65726f2061646481527f726573730000000000000000000000000000000000000000000000000000000060208201529050611b1c565b602080825281016103c581612055565b60208082527f4552433732313a206d696e7420746f20746865207a65726f20616464726573739101908152611c30565b602080825281016103c5816120bd565b601c8152602081017f4552433732313a20746f6b656e20616c7265616479206d696e7465640000000081529050611c30565b602080825281016103c5816120fd565b6000612149825190565b612157818560208601611625565b9290920192915050565b7f646174613a696d6167652f7376672b786d6c3b6261736536342c0000000000008152601a016103c5818361213f565b60198152602081017f4552433732313a20617070726f766520746f2063616c6c65720000000000000081529050611c30565b602080825281016103c581612191565b60328152602081017f4552433732313a207472616e7366657220746f206e6f6e20455243373231526581527f63656976657220696d706c656d656e746572000000000000000000000000000060208201529050611b1c565b602080825281016103c5816121d3565b7f3c673e000000000000000000000000000000000000000000000000000000000081525b60030190565b7f3b222f3e0000000000000000000000000000000000000000000000000000000081525b60040190565b7f3c2f673e000000000000000000000000000000000000000000000000000000008152612289565b7f3c7376672069643d224c617965725f322220646174612d6e616d653d224c617981527f657220322220786d6c6e733d22687474703a2f2f7777772e77332e6f72672f3260208201527f3030302f737667222076696577426f783d2230203020333435203436352e363660408201527f223e00000000000000000000000000000000000000000000000000000000000060608201527f3c672069643d224c617965725f312d322220646174612d6e616d653d224c617960628201527f65722031223e000000000000000000000000000000000000000000000000000060828201526088016123a48161223b565b7f3c726563742077696474683d2233343522206865696768743d2234363522207281527f783d223137222072793d22313722207374796c653d2266696c6c3a20000000006020820152603c0190506123fc818661213f565b905061240781612265565b9050612413818561213f565b905061241f818461213f565b905061242b818361213f565b90506124368161228f565b90506124418161228f565b7f3c2f7376673e0000000000000000000000000000000000000000000000000000815260060195945050505050565b808201808211156103c5576103c5611e22565b60008261249257612492611df8565b500490565b81810281158282048414176103c5576103c5611e22565b608081016124bc82876116cf565b6124c960208301866116cf565b6124d660408301856117c8565b81810360608301526124e88184611649565b9695505050505050565b80516103c5816115b2565b60006020828403121561251257612512600080fd5b6000610a1f84846124f2565b6000815461252b81611a9c565b600182168015612542576001811461255757612587565b60ff1983168652811515820286019350612587565b60008581526020902060005b8381101561257f57815488820152600190910190602001612563565b505081860193505b50505092915050565b7f3c74657874207472616e73666f726d3d227472616e736c6174652836352e323681527f203434312e33352922207374796c653d2266696c6c3a2000000000000000000060208201526037016125e6818461213f565b7f3b20666f6e742d66616d696c793a20506f7070696e732d53656d69426f6c642c81527f20506f7070696e733b20666f6e742d73697a653a20343170783b20666f6e742d60208201527f7765696768743a203630303b206c65747465722d73706163696e673a202d2e3060408201527f34656d3b223e3c747370616e20783d22302220793d222d3138223e00000000006060820152607b01905061268a818361251e565b7f3c2f747370616e3e3c2f746578743e000000000000000000000000000000000081529050600f81016107ec565b7f3b207374726f6b652d6d697465726c696d69743a2031303b222f3e000000000081525b601b0190565b7f3c6c696e652078313d2233322e3731222079313d223134362e3833222078323d81527f223331302e3837222079323d223134362e383322207374796c653d2266696c6c60208201526f01d103737b7329d9039ba3937b5b29d160851b60408201525b60500190565b7f3c6c696e652078313d2233322e3731222079313d223139302e3838222078323d81527f223331302e3837222079323d223139302e383822207374796c653d2266696c6c60208201526f01d103737b7329d9039ba3937b5b29d160851b6040820152612745565b7f3c6c696e652078313d2233322e3731222079313d223233342e3932222078323d81527f223331302e3837222079323d223233342e393222207374796c653d2266696c6c60208201526f01d103737b7329d9039ba3937b5b29d160851b6040820152612745565b7f3c6c696e652078313d2233322e3731222079313d223237382e3937222078323d81527f223331302e3837222079323d223237382e393722207374796c653d2266696c6c60208201526f01d103737b7329d9039ba3937b5b29d160851b6040820152612745565b7f3c6c696e652078313d2233322e3731222079313d223332332e3031222078323d81527f223331302e3837222079323d223332332e303122207374796c653d2266696c6c60208201526f01d103737b7329d9039ba3937b5b29d160851b6040820152612745565b7f3c74657874207472616e73666f726d3d227472616e736c617465283238332e3281527f35203430312e38392922207374796c653d2266696c6c3a200000000000000000602082015260380161293d818961213f565b7f3b20666f6e742d66616d696c793a20506f7070696e732d526567756c61722c2081527f506f7070696e733b20666f6e742d73697a653a20313470783b223e3c7473706160208201527f6e20783d222d31342220793d222d3138223e46524f4d3c2f747370616e3e3c2f60408201527f746578743e00000000000000000000000000000000000000000000000000000060608201527f3c6c696e652078313d2233322e3731222079313d2238322e3738222078323d2260658201527f3230302e3838222079323d2238322e373822207374796c653d2266696c6c3a2060858201527f6e6f6e653b207374726f6b653a2000000000000000000000000000000000000060a582015260b3019050612a53818861213f565b9050612a5e816126b8565b9050612a69816126e2565b9050612a75818761213f565b9050612a80816126b8565b9050612a8b8161274b565b9050612a97818661213f565b9050612aa2816126b8565b9050612aad816127b2565b9050612ab9818561213f565b9050612ac4816126b8565b9050612acf81612819565b9050612adb818461213f565b9050612ae6816126b8565b9050612af181612880565b9050612afd818361213f565b9050612b08816126b8565b98975050505050505050565b7f3b223e446561722c204d7920667269656e642e3c2f747370616e3e000000000081526126dc565b7f3b223e0000000000000000000000000000000000000000000000000000000000815261225f565b7f3c74657874207472616e73666f726d3d227472616e736c6174652832342e342081527f37332e36362922207374796c653d2266696c6c3a20233234323632623b20666f60208201527f6e742d66616d696c793a20534650726f446973706c61792d526567756c61722c60408201527f202661706f733b53462050726f20446973706c61792661706f733b3b20666f6e60608201527f742d73697a653a20313870783b223e000000000000000000000000000000000060808201527f3c747370616e20783d2231352220793d223022207374796c653d2266696c6c3a608f8201527f200000000000000000000000000000000000000000000000000000000000000060af82015260b001612c78818561213f565b9050612c8381612b14565b7f3c747370616e20783d2231352220793d22363422207374796c653d226c65747481527f65722d73706163696e673a202e3032656d3b2066696c6c3a200000000000000060208201526039019050612cdb818461213f565b9050612ce681612b3c565b9050612cf2818361251e565b7f3c2f747370616e3e3c2f746578743e000000000000000000000000000000000081529050600f8101610a1f56fe4142434445464748494a4b4c4d4e4f505152535455565758595a6162636465666768696a6b6c6d6e6f707172737475767778797a303132333435363738392b2fa2646970667358221220b385c8db4f5ee5c9e6fea7c22c162c56abcd7c6c2f6fb7205d379df6d2c96dcf64736f6c63430008120033",
  "linkReferences": {},
  "deployedLinkReferences": {}
}