{
  "_format": "hh-sol-artifact-1",
  "contractName": "Factory",
  "sourceName": "contracts/Factory.sol",
  "abi": [
    {
      "inputs": [
        {
          "internalType": "address",
          "name": "_recipient",
          "type": "address"
        },
        {
          "internalType": "address",
          "name": "_whitelistContract",
          "type": "address"
        },
        {
          "internalType": "string",
          "name": "_recipientFirstName",
          "type": "string"
        },
        {
          "internalType": "string",
          "name": "_recipientLastName",
          "type": "string"
        },
        {
          "internalType": "uint256",
          "name": "_minimumDonate",
          "type": "uint256"
        },
        {
          "internalType": "address",
          "name": "_forwarder",
          "type": "address"
        }
      ],
      "name": "deploySet",
      "outputs": [],
      "stateMutability": "nonpayable",
      "type": "function"
    },
    {
      "inputs": [],
      "name": "getAllFundraisers",
      "outputs": [
        {
          "internalType": "address[]",
          "name": "",
          "type": "address[]"
        }
      ],
      "stateMutability": "view",
      "type": "function"
    },
    {
      "inputs": [],
      "name": "getAllNfts",
      "outputs": [
        {
          "internalType": "address[]",
          "name": "",
          "type": "address[]"
        }
      ],
      "stateMutability": "view",
      "type": "function"
    },
    {
      "inputs": [
        {
          "internalType": "address",
          "name": "_recipient",
          "type": "address"
        }
      ],
      "name": "getFundraiseSet",
      "outputs": [
        {
          "components": [
            {
              "internalType": "contract Fundraiser",
              "name": "fundraiser",
              "type": "address"
            },
            {
              "internalType": "contract DonaFT",
              "name": "donaFT",
              "type": "address"
            }
          ],
          "internalType": "struct Factory.FundraiseSet",
          "name": "",
          "type": "tuple"
        }
      ],
      "stateMutability": "view",
      "type": "function"
    }
  ],
  "bytecode": "0x608060405234801561001057600080fd5b50614c61806100206000396000f3fe60806040523480156200001157600080fd5b5060043610620000525760003560e01c806308e3566414620000575780633f808fff1462000079578063732e8d731462000092578063d456ac0e146200009c575b600080fd5b6200006162000104565b604051620000709190620004e8565b60405180910390f35b620000906200008a36600462000595565b62000168565b005b62000061620003e7565b620000f5620000ad36600462000671565b604080518082018252600080825260209182018190526001600160a01b0393841681528082528290208251808401909352805484168352600101549092169181019190915290565b604051620000709190620006fd565b606060018054806020026020016040519081016040528092919081815260200182805480156200015e57602002820191906000526020600020905b81546001600160a01b031681526001909101906020018083116200013f575b5050505050905090565b600030878787878d6040516200017e9062000449565b6200018f969594939291906200073b565b604051809103906000f080158015620001ac573d6000803e3d6000fd5b5090506000818a8a8a8a8a8a604051602001620001cd9493929190620007a5565b604051602081830303815290604052338888604051620001ed9062000457565b620001ff97969594939291906200082c565b604051809103906000f0801580156200021c573d6000803e3d6000fd5b506040517f61b3619c0000000000000000000000000000000000000000000000000000000081529091506001600160a01b038316906361b3619c9062000267908490600401620008a9565b600060405180830381600087803b1580156200028257600080fd5b505af115801562000297573d6000803e3d6000fd5b505050506001819080600181540180825580915050600190039060005260206000200160009091909190916101000a8154816001600160a01b0302191690836001600160a01b031602179055506002829080600181540180825580915050600190039060005260206000200160009091909190916101000a8154816001600160a01b0302191690836001600160a01b0316021790555060006040518060400160405280836001600160a01b03168152602001846001600160a01b03168152509050806000808d6001600160a01b03166001600160a01b0316815260200190815260200160002060008201518160000160006101000a8154816001600160a01b0302191690836001600160a01b0316021790555060208201518160010160006101000a8154816001600160a01b0302191690836001600160a01b031602179055509050505050505050505050505050565b606060028054806020026020016040519081016040528092919081815260200182805480156200015e576020028201919060005260206000209081546001600160a01b031681526001909101906020018083116200013f575050505050905090565b6130f180620008ba83390190565b61128180620039ab83390190565b60006001600160a01b0382165b92915050565b620004838162000465565b82525050565b62000495828262000478565b5060200190565b6000620004a7825190565b808452602093840193830160005b82811015620004de578151620004cc878262000489565b965050602082019150600101620004b5565b5093949350505050565b60208082528101620004fb81846200049c565b9392505050565b6200050d8162000465565b81146200051957600080fd5b50565b8035620004728162000502565b60008083601f840112620005405762000540600080fd5b50813567ffffffffffffffff8111156200055d576200055d600080fd5b6020830191508360018202830111156200057a576200057a600080fd5b9250929050565b806200050d565b8035620004728162000581565b60008060008060008060008060c0898b031215620005b657620005b6600080fd5b6000620005c48b8b6200051c565b9850506020620005d78b828c016200051c565b975050604089013567ffffffffffffffff811115620005f957620005f9600080fd5b620006078b828c0162000529565b9650965050606089013567ffffffffffffffff8111156200062b576200062b600080fd5b620006398b828c0162000529565b945094505060806200064e8b828c0162000588565b92505060a0620006618b828c016200051c565b9150509295985092959890939650565b600060208284031215620006885762000688600080fd5b60006200069684846200051c565b949350505050565b60006001600160a01b03821662000472565b600062000472826200069e565b60006200047282620006b0565b6200048381620006bd565b8051620006e38382620006ca565b506020810151620006f86020840182620006ca565b505050565b60408101620004728284620006d5565b82818337506000910152565b8183526020830192506200072f8284836200070d565b50601f01601f19160190565b608081016200074b828962000478565b81810360208301526200076081878962000719565b905081810360408301526200077781858762000719565b905062000788606083018462000478565b979650505050505050565b620007a08284836200070d565b500190565b620007b281858762000793565b9050620007c181838562000793565b95945050505050565b60005b83811015620007e7578181015183820152602001620007cd565b50506000910152565b6000620007fb825190565b80845260208401935062000814818560208601620007ca565b601f01601f19169290920192915050565b8062000483565b60e081016200083c828a62000478565b6200084b602083018962000478565b6200085a604083018862000478565b81810360608301526200086e8187620007f0565b90506200087f608083018662000478565b6200088e60a083018562000825565b6200089d60c083018462000478565b98975050505050505050565b602081016200047282846200047856fe60806040523480156200001157600080fd5b50604051620030f1380380620030f18339810160408190526200003491620002fe565b82604051602001620000479190620003cd565b60408051601f19818403018152919052826000620000668382620004e6565b506001620000758282620004e6565b5050506040518060400160405280826001600160a01b031681526020018484604051602001620000a7929190620005b2565b60408051808303601f1901815291905290528051600a80546001600160a01b0319166001600160a01b039092169190911781556020820151600b90620000ee9082620004e6565b5050600680546001600160a01b0319166001600160a01b038716179055506040805160208082019092526000808252805260079091527f6d5257204ebe7d88fd91ae87941cb2dd9d8062b64ae5a2bd2d28ec40b9fbf6df90620001529082620004e6565b506200016a60086200018b60201b620008ed1760201c565b6200018160096200018b60201b620008ed1760201c565b50505050620005dd565b80546001019055565b60006001600160a01b0382165b92915050565b620001b28162000194565b8114620001be57600080fd5b50565b8051620001a181620001a7565b634e487b7160e01b600052604160045260246000fd5b601f19601f83011681016001600160401b03811182821017156200020c576200020c620001ce565b6040525050565b60006200021f60405190565b90506200022d8282620001e4565b919050565b60006001600160401b038211156200024e576200024e620001ce565b601f19601f83011660200192915050565b60005b838110156200027c57818101518382015260200162000262565b50506000910152565b60006200029c620002968462000232565b62000213565b905082815260208101848484011115620002b957620002b9600080fd5b620002c68482856200025f565b509392505050565b600082601f830112620002e457620002e4600080fd5b8151620002f684826020860162000285565b949350505050565b60008060008060808587031215620003195762000319600080fd5b6000620003278787620001c1565b602087015190955090506001600160401b038111156200034a576200034a600080fd5b6200035887828801620002ce565b604087015190945090506001600160401b038111156200037b576200037b600080fd5b6200038987828801620002ce565b92505060606200039c87828801620001c1565b91505092959194509250565b6000620003b3825190565b620003c38185602086016200025f565b9290920192915050565b6b02632ba3a32b910333937b6960a51b8152600c01620001a18183620003a8565b634e487b7160e01b600052602260045260246000fd5b6002810460018216806200041957607f821691505b6020821081036200042e576200042e620003ee565b50919050565b6000620001a1620004428381565b90565b620004508362000434565b815460001960089490940293841b1916921b91909117905550565b60006200047a81848462000445565b505050565b818110156200049e57620004956000826200046b565b6001016200047f565b5050565b601f8211156200047a576000818152602090206020601f85010481016020851015620004cb5750805b620004df6020601f8601048301826200047f565b5050505050565b81516001600160401b03811115620005025762000502620001ce565b6200050e825462000404565b6200051b828285620004a2565b506020601f8211600181146200055357600083156200053a5750848201515b600019600885021c1981166002850217855550620004df565b600084815260208120601f198516915b8281101562000585578785015182556020948501946001909201910162000563565b5084821015620005a35783870151600019601f87166008021c191681555b50505050600202600101905550565b620005be8184620003a8565b600160fd1b81526001019050620005d68183620003a8565b9392505050565b612b0480620005ed6000396000f3fe608060405234801561001057600080fd5b50600436106101365760003560e01c80636a627842116100b2578063a22cb46511610081578063c87b56dd11610066578063c87b56dd14610284578063d7883cca14610297578063e985e9c5146102aa57600080fd5b8063a22cb4651461025e578063b88d4fde1461027157600080fd5b80636a6278421461021057806370a08231146102305780637f98efc61461024357806395d89b411461025657600080fd5b806323b872dd11610109578063453a2abc116100ee578063453a2abc146101d457806361b3619c146101ea5780636352211e146101fd57600080fd5b806323b872dd146101ae57806342842e0e146101c157600080fd5b806301ffc9a71461013b57806306fdde0314610164578063081812fc14610179578063095ea7b314610199575b600080fd5b61014e610149366004611408565b6102e6565b60405161015b9190611433565b60405180910390f35b61016c6103cb565b60405161015b9190611497565b61018c6101873660046114b9565b61045d565b60405161015b91906114f4565b6101ac6101a7366004611516565b610484565b005b6101ac6101bc366004611553565b610512565b6101ac6101cf366004611553565b610543565b6101dc61055e565b60405161015b9291906115a3565b6101ac6101f83660046115c3565b6105ff565b61018c61020b3660046114b9565b610681565b61022361021e3660046115c3565b6106b6565b60405161015b91906115ea565b61022361023e3660046115c3565b610756565b61016c6102513660046115f8565b61079a565b61016c6107f3565b6101ac61026c36600461162d565b610802565b6101ac61027f366004611756565b610811565b61016c6102923660046114b9565b610849565b6101ac6102a5366004611827565b61088a565b61014e6102b836600461186f565b6001600160a01b03918216600090815260056020908152604080832093909416825291909152205460ff1690565b60007fffffffff0000000000000000000000000000000000000000000000000000000082167f80ac58cd00000000000000000000000000000000000000000000000000000000148061037957507fffffffff0000000000000000000000000000000000000000000000000000000082167f5b5e139f00000000000000000000000000000000000000000000000000000000145b806103c557507f01ffc9a7000000000000000000000000000000000000000000000000000000007fffffffff000000000000000000000000000000000000000000000000000000008316145b92915050565b6060600080546103da906118b8565b80601f0160208091040260200160405190810160405280929190818152602001828054610406906118b8565b80156104535780601f1061042857610100808354040283529160200191610453565b820191906000526020600020905b81548152906001019060200180831161043657829003601f168201915b5050505050905090565b6000610468826108f6565b506000908152600460205260409020546001600160a01b031690565b600061048f82610681565b9050806001600160a01b0316836001600160a01b0316036104cb5760405162461bcd60e51b81526004016104c29061193e565b60405180910390fd5b336001600160a01b03821614806104e757506104e781336102b8565b6105035760405162461bcd60e51b81526004016104c2906119a6565b61050d838361092d565b505050565b61051c33826109a8565b6105385760405162461bcd60e51b81526004016104c290611a0e565b61050d838383610a27565b61050d83838360405180602001604052806000815250610811565b600a8054600b80546001600160a01b03909216929161057c906118b8565b80601f01602080910402602001604051908101604052809291908181526020018280546105a8906118b8565b80156105f55780601f106105ca576101008083540402835291602001916105f5565b820191906000526020600020905b8154815290600101906020018083116105d857829003601f168201915b5050505050905082565b6006546001600160a01b031633146106295760405162461bcd60e51b81526004016104c290611a52565b600c546001600160a01b0316156106525760405162461bcd60e51b81526004016104c290611a94565b600c805473ffffffffffffffffffffffffffffffffffffffff19166001600160a01b0392909216919091179055565b6000818152600260205260408120546001600160a01b0316806103c55760405162461bcd60e51b81526004016104c290611ad6565b600c546000906001600160a01b031633146106e35760405162461bcd60e51b81526004016104c290611b18565b6001600160a01b038216600090815260036020526040902054156107195760405162461bcd60e51b81526004016104c290611b5a565b506009546107278282610b5c565b6001600160a01b038216600090815260036020526040902060019055610751600980546001019055565b919050565b60006001600160a01b03821661077e5760405162461bcd60e51b81526004016104c290611bc2565b506001600160a01b031660009081526003602052604090205490565b60606107a560085490565b82106107c35760405162461bcd60e51b81526004016104c290611c04565b6107ce600484611c2a565b60008381526007602052604090209093506107ec908490600b610c64565b9392505050565b6060600180546103da906118b8565b61080d338383610d92565b5050565b61081b33836109a8565b6108375760405162461bcd60e51b81526004016104c290611a0e565b61084384848484610e34565b50505050565b6060610854826108f6565b6103c5600060076000600161086860085490565b6108729190611c54565b8152602001908152602001600020600a600101610c64565b600a546001600160a01b031633146108b45760405162461bcd60e51b81526004016104c290611c99565b8181600760006108c360085490565b815260200190815260200160002091826108de929190611d44565b5061080d600880546001019055565b80546001019055565b6000818152600260205260409020546001600160a01b031661092a5760405162461bcd60e51b81526004016104c290611ad6565b50565b6000818152600460205260409020805473ffffffffffffffffffffffffffffffffffffffff19166001600160a01b038416908117909155819061096f82610681565b6001600160a01b03167f8c5be1e5ebec7d5bd14f71427d1e84f3dd0314c0f7b2291e5b200ac8c7c3b92560405160405180910390a45050565b6000806109b483610681565b9050806001600160a01b0316846001600160a01b031614806109fb57506001600160a01b0380821660009081526005602090815260408083209388168352929052205460ff165b80610a1f5750836001600160a01b0316610a148461045d565b6001600160a01b0316145b949350505050565b826001600160a01b0316610a3a82610681565b6001600160a01b031614610a605760405162461bcd60e51b81526004016104c290611e61565b6001600160a01b038216610a865760405162461bcd60e51b81526004016104c290611ec9565b826001600160a01b0316610a9982610681565b6001600160a01b031614610abf5760405162461bcd60e51b81526004016104c290611e61565b6000818152600460209081526040808320805473ffffffffffffffffffffffffffffffffffffffff199081169091556001600160a01b0387811680865260038552838620805460001901905590871680865283862080546001019055868652600290945282852080549092168417909155905184937fddf252ad1be2c89b69c2b068fc378daa952ba7f163c4a11628f55a4df523b3ef91a4505050565b6001600160a01b038216610b825760405162461bcd60e51b81526004016104c290611f09565b6000818152600260205260409020546001600160a01b031615610bb75760405162461bcd60e51b81526004016104c290611f4b565b6000818152600260205260409020546001600160a01b031615610bec5760405162461bcd60e51b81526004016104c290611f4b565b6001600160a01b0382166000818152600360209081526040808320805460010190558483526002909152808220805473ffffffffffffffffffffffffffffffffffffffff19168417905551839291907fddf252ad1be2c89b69c2b068fc378daa952ba7f163c4a11628f55a4df523b3ef908290a45050565b60408051808201909152600781526611a3232323232360c91b60208201526060906001859003610cc8575060408051808201909152600781527f23314532363244000000000000000000000000000000000000000000000000006020820152610d48565b84600203610d0a575060408051808201909152600781527f23463646444442000000000000000000000000000000000000000000000000006020820152610d48565b84600303610d48575060408051808201909152600781527f234532423642460000000000000000000000000000000000000000000000000060208201525b80610d538685610e67565b610d5c87610f8c565b610d668888611174565b604051602001610d799493929190611ff9565b6040516020818303038152906040529150509392505050565b816001600160a01b0316836001600160a01b031603610dc35760405162461bcd60e51b81526004016104c2906121e4565b6001600160a01b0383811660008181526005602090815260408083209487168084529490915290819020805460ff1916851515179055517f17307eab39ab6107e8899845ad3d59bd9653f200f220920489ca2b5937696c3190610e27908590611433565b60405180910390a3505050565b610e3f848484610a27565b610e4b84848484611283565b6108435760405162461bcd60e51b81526004016104c29061224c565b60408051808201909152600781527f233234323632420000000000000000000000000000000000000000000000000060208201526060906001849003610ee1575060408051808201909152600781527f23463746454443000000000000000000000000000000000000000000000000006020820152610f61565b83600203610f23575060408051808201909152600781527f23324633413339000000000000000000000000000000000000000000000000006020820152610f61565b83600303610f61575060408051808201909152600781527f233543324532440000000000000000000000000000000000000000000000000060208201525b8083604051602001610f749291906122ce565b60405160208183030381529060405291505092915050565b60408051808201825260078082527f234535414144330000000000000000000000000000000000000000000000000060208084019190915283518085019094529083527f2344443945434400000000000000000000000000000000000000000000000000908301526060916001849003611075576040518060400160405280600781526020017f233541423741430000000000000000000000000000000000000000000000000081525091506040518060400160405280600781526020017f2333333737373000000000000000000000000000000000000000000000000000815250905061113f565b836002036110f2576040518060400160405280600781526020017f234234443836340000000000000000000000000000000000000000000000000081525091506040518060400160405280600781526020017f2342344438363400000000000000000000000000000000000000000000000000815250905061113f565b8360030361113f576040518060400160405280600781526020016611a3232323232360c91b81525091506040518060400160405280600781526020016611a3232323232360c91b81525090505b8181828384858660405160200161115c9796959493929190612625565b60405160208183030381529060405292505050919050565b60408051808201909152600781527f2332343236324200000000000000000000000000000000000000000000000000602082015260609060018490036111ee575060408051808201909152600781527f2346374645444300000000000000000000000000000000000000000000000000602082015261126e565b83600203611230575060408051808201909152600781527f2332463341333900000000000000000000000000000000000000000000000000602082015261126e565b8360030361126e575060408051808201909152600781527f233543324532440000000000000000000000000000000000000000000000000060208201525b808184604051602001610f74939291906128a2565b60006001600160a01b0384163b156113c3576040517f150b7a020000000000000000000000000000000000000000000000000000000081526001600160a01b0385169063150b7a02906112e0903390899088908890600401612a5e565b6020604051808303816000875af192505050801561131b575060408051601f3d908101601f1916820190925261131891810190612aad565b60015b611378573d808015611349576040519150601f19603f3d011682016040523d82523d6000602084013e61134e565b606091505b5080516000036113705760405162461bcd60e51b81526004016104c29061224c565b805181602001fd5b7fffffffff00000000000000000000000000000000000000000000000000000000167f150b7a0200000000000000000000000000000000000000000000000000000000149050610a1f565b506001949350505050565b7fffffffff0000000000000000000000000000000000000000000000000000000081165b811461092a57600080fd5b80356103c5816113ce565b60006020828403121561141d5761141d600080fd5b6000610a1f84846113fd565b8015155b82525050565b602081016103c58284611429565b60005b8381101561145c578181015183820152602001611444565b50506000910152565b600061146f825190565b808452602084019350611486818560208601611441565b601f01601f19169290920192915050565b602080825281016107ec8184611465565b806113f2565b80356103c5816114a8565b6000602082840312156114ce576114ce600080fd5b6000610a1f84846114ae565b60006001600160a01b0382166103c5565b61142d816114da565b602081016103c582846114eb565b6113f2816114da565b80356103c581611502565b6000806040838503121561152c5761152c600080fd5b6000611538858561150b565b9250506020611549858286016114ae565b9150509250929050565b60008060006060848603121561156b5761156b600080fd5b6000611577868661150b565b93505060206115888682870161150b565b9250506040611599868287016114ae565b9150509250925092565b604081016115b182856114eb565b8181036020830152610a1f8184611465565b6000602082840312156115d8576115d8600080fd5b6000610a1f848461150b565b8061142d565b602081016103c582846115e4565b6000806040838503121561160e5761160e600080fd5b600061153885856114ae565b8015156113f2565b80356103c58161161a565b6000806040838503121561164357611643600080fd5b600061164f858561150b565b925050602061154985828601611622565b634e487b7160e01b600052604160045260246000fd5b601f19601f830116810181811067ffffffffffffffff8211171561169c5761169c611660565b6040525050565b60006116ae60405190565b90506107518282611676565b600067ffffffffffffffff8211156116d4576116d4611660565b601f19601f83011660200192915050565b82818337506000910152565b60006117046116ff846116ba565b6116a3565b90508281526020810184848401111561171f5761171f600080fd5b61172a8482856116e5565b509392505050565b600082601f83011261174657611746600080fd5b8135610a1f8482602086016116f1565b6000806000806080858703121561176f5761176f600080fd5b600061177b878761150b565b945050602061178c8782880161150b565b935050604061179d878288016114ae565b925050606085013567ffffffffffffffff8111156117bd576117bd600080fd5b6117c987828801611732565b91505092959194509250565b60008083601f8401126117ea576117ea600080fd5b50813567ffffffffffffffff81111561180557611805600080fd5b60208301915083600182028301111561182057611820600080fd5b9250929050565b6000806020838503121561183d5761183d600080fd5b823567ffffffffffffffff81111561185757611857600080fd5b611863858286016117d5565b92509250509250929050565b6000806040838503121561188557611885600080fd5b6000611891858561150b565b92505060206115498582860161150b565b634e487b7160e01b600052602260045260246000fd5b6002810460018216806118cc57607f821691505b6020821081036118de576118de6118a2565b50919050565b60218152602081017f4552433732313a20617070726f76616c20746f2063757272656e74206f776e6581527f7200000000000000000000000000000000000000000000000000000000000000602082015290505b60400190565b602080825281016103c5816118e4565b603d8152602081017f4552433732313a20617070726f76652063616c6c6572206973206e6f7420746f81527f6b656e206f776e6572206f7220617070726f76656420666f7220616c6c00000060208201529050611938565b602080825281016103c58161194e565b602d8152602081017f4552433732313a2063616c6c6572206973206e6f7420746f6b656e206f776e6581527f72206f7220617070726f7665640000000000000000000000000000000000000060208201529050611938565b602080825281016103c5816119b6565b600c8152602081017f4f6e6c7920666163746f72790000000000000000000000000000000000000000815290505b60200190565b602080825281016103c581611a1e565b600b8152602081017f416c72656164792073657400000000000000000000000000000000000000000081529050611a4c565b602080825281016103c581611a62565b60188152602081017f4552433732313a20696e76616c696420746f6b656e204944000000000000000081529050611a4c565b602080825281016103c581611aa4565b600f8152602081017f4f6e6c792066756e64726169736572000000000000000000000000000000000081529050611a4c565b602080825281016103c581611ae6565b600e8152602081017f416c7265616479206d696e74656400000000000000000000000000000000000081529050611a4c565b602080825281016103c581611b28565b60298152602081017f4552433732313a2061646472657373207a65726f206973206e6f74206120766181527f6c6964206f776e6572000000000000000000000000000000000000000000000060208201529050611938565b602080825281016103c581611b6a565b600c8152602081017f446f65736e74206578697374000000000000000000000000000000000000000081529050611a4c565b602080825281016103c581611bd2565b634e487b7160e01b600052601260045260246000fd5b600082611c3957611c39611c14565b500690565b634e487b7160e01b600052601160045260246000fd5b818103818111156103c5576103c5611c3e565b600b8152602081017f4f6e6c792077726974657200000000000000000000000000000000000000000081529050611a4c565b602080825281016103c581611c67565b60006103c5611cb58381565b90565b611cc183611ca9565b815460001960089490940293841b1916921b91909117905550565b600061050d818484611cb8565b8181101561080d57611cfc600082611cdc565b600101611ce9565b601f82111561050d576000818152602090206020601f85010481016020851015611d2b5750805b611d3d6020601f860104830182611ce9565b5050505050565b8267ffffffffffffffff811115611d5d57611d5d611660565b611d6782546118b8565b611d72828285611d04565b506000601f821160018114611da75760008315611d8f5750848201355b600019600885021c1981166002850217855550611e01565b600084815260209020601f19841690835b82811015611dd85787850135825560209485019460019092019101611db8565b5084821015611df557600019601f86166008021c19848801351681555b50506001600284020184555b505050505050565b60258152602081017f4552433732313a207472616e736665722066726f6d20696e636f72726563742081527f6f776e657200000000000000000000000000000000000000000000000000000060208201529050611938565b602080825281016103c581611e09565b60248152602081017f4552433732313a207472616e7366657220746f20746865207a65726f2061646481527f726573730000000000000000000000000000000000000000000000000000000060208201529050611938565b602080825281016103c581611e71565b60208082527f4552433732313a206d696e7420746f20746865207a65726f20616464726573739101908152611a4c565b602080825281016103c581611ed9565b601c8152602081017f4552433732313a20746f6b656e20616c7265616479206d696e7465640000000081529050611a4c565b602080825281016103c581611f19565b7f3c673e000000000000000000000000000000000000000000000000000000000081525b60030190565b6000611f8f825190565b611f9d818560208601611441565b9290920192915050565b7f3b222f3e0000000000000000000000000000000000000000000000000000000081525b60040190565b7f3c2f673e000000000000000000000000000000000000000000000000000000008152611fcb565b7f3c7376672069643d224c617965725f322220646174612d6e616d653d224c617981527f657220322220786d6c6e733d22687474703a2f2f7777772e77332e6f72672f3260208201527f3030302f737667222076696577426f783d2230203020333435203436352e363660408201527f223e00000000000000000000000000000000000000000000000000000000000060608201527f3c672069643d224c617965725f312d322220646174612d6e616d653d224c617960628201527f65722031223e000000000000000000000000000000000000000000000000000060828201526088016120e681611f5b565b7f3c726563742077696474683d2233343522206865696768743d2234363522207281527f783d223137222072793d22313722207374796c653d2266696c6c3a20000000006020820152603c01905061213e8186611f85565b905061214981611fa7565b90506121558185611f85565b90506121618184611f85565b905061216d8183611f85565b905061217881611fd1565b905061218381611fd1565b7f3c2f7376673e0000000000000000000000000000000000000000000000000000815260060195945050505050565b60198152602081017f4552433732313a20617070726f766520746f2063616c6c65720000000000000081529050611a4c565b602080825281016103c5816121b2565b60328152602081017f4552433732313a207472616e7366657220746f206e6f6e20455243373231526581527f63656976657220696d706c656d656e746572000000000000000000000000000060208201529050611938565b602080825281016103c5816121f4565b60008154612269816118b8565b6001821680156122805760018114612295576122c5565b60ff19831686528115158202860193506122c5565b60008581526020902060005b838110156122bd578154888201526001909101906020016122a1565b505081860193505b50505092915050565b7f3c74657874207472616e73666f726d3d227472616e736c6174652836352e323681527f203434312e33352922207374796c653d2266696c6c3a2000000000000000000060208201526037016123248184611f85565b7f3b20666f6e742d66616d696c793a20506f7070696e732d53656d69426f6c642c81527f20506f7070696e733b20666f6e742d73697a653a20343170783b20666f6e742d60208201527f7765696768743a203630303b206c65747465722d73706163696e673a202d2e3060408201527f34656d3b223e3c747370616e20783d22302220793d222d3138223e00000000006060820152607b0190506123c8818361225c565b7f3c2f747370616e3e3c2f746578743e000000000000000000000000000000000081529050600f81016107ec565b7f3b207374726f6b652d6d697465726c696d69743a2031303b222f3e000000000081525b601b0190565b7f3c6c696e652078313d2233322e3731222079313d223134362e3833222078323d81527f223331302e3837222079323d223134362e383322207374796c653d2266696c6c60208201526f01d103737b7329d9039ba3937b5b29d160851b60408201525b60500190565b7f3c6c696e652078313d2233322e3731222079313d223139302e3838222078323d81527f223331302e3837222079323d223139302e383822207374796c653d2266696c6c60208201526f01d103737b7329d9039ba3937b5b29d160851b6040820152612483565b7f3c6c696e652078313d2233322e3731222079313d223233342e3932222078323d81527f223331302e3837222079323d223233342e393222207374796c653d2266696c6c60208201526f01d103737b7329d9039ba3937b5b29d160851b6040820152612483565b7f3c6c696e652078313d2233322e3731222079313d223237382e3937222078323d81527f223331302e3837222079323d223237382e393722207374796c653d2266696c6c60208201526f01d103737b7329d9039ba3937b5b29d160851b6040820152612483565b7f3c6c696e652078313d2233322e3731222079313d223332332e3031222078323d81527f223331302e3837222079323d223332332e303122207374796c653d2266696c6c60208201526f01d103737b7329d9039ba3937b5b29d160851b6040820152612483565b7f3c74657874207472616e73666f726d3d227472616e736c617465283238332e3281527f35203430312e38392922207374796c653d2266696c6c3a200000000000000000602082015260380161267b8189611f85565b7f3b20666f6e742d66616d696c793a20506f7070696e732d526567756c61722c2081527f506f7070696e733b20666f6e742d73697a653a20313470783b223e3c7473706160208201527f6e20783d222d31342220793d222d3138223e46524f4d3c2f747370616e3e3c2f60408201527f746578743e00000000000000000000000000000000000000000000000000000060608201527f3c6c696e652078313d2233322e3731222079313d2238322e3738222078323d2260658201527f3230302e3838222079323d2238322e373822207374796c653d2266696c6c3a2060858201527f6e6f6e653b207374726f6b653a2000000000000000000000000000000000000060a582015260b30190506127918188611f85565b905061279c816123f6565b90506127a781612420565b90506127b38187611f85565b90506127be816123f6565b90506127c981612489565b90506127d58186611f85565b90506127e0816123f6565b90506127eb816124f0565b90506127f78185611f85565b9050612802816123f6565b905061280d81612557565b90506128198184611f85565b9050612824816123f6565b905061282f816125be565b905061283b8183611f85565b9050612846816123f6565b98975050505050505050565b7f3b223e446561722c204d7920667269656e642e3c2f747370616e3e0000000000815261241a565b7f3b223e00000000000000000000000000000000000000000000000000000000008152611f7f565b7f3c74657874207472616e73666f726d3d227472616e736c6174652832342e342081527f37332e36362922207374796c653d2266696c6c3a20233234323632623b20666f60208201527f6e742d66616d696c793a20534650726f446973706c61792d526567756c61722c60408201527f202661706f733b53462050726f20446973706c61792661706f733b3b20666f6e60608201527f742d73697a653a20313870783b223e000000000000000000000000000000000060808201527f3c747370616e20783d2231352220793d223022207374796c653d2266696c6c3a608f8201527f200000000000000000000000000000000000000000000000000000000000000060af82015260b0016129b68185611f85565b90506129c181612852565b7f3c747370616e20783d2231352220793d22363422207374796c653d226c65747481527f65722d73706163696e673a202e3032656d3b2066696c6c3a200000000000000060208201526039019050612a198184611f85565b9050612a248161287a565b9050612a30818361225c565b7f3c2f747370616e3e3c2f746578743e000000000000000000000000000000000081529050600f8101610a1f565b60808101612a6c82876114eb565b612a7960208301866114eb565b612a8660408301856115e4565b8181036060830152612a988184611465565b9695505050505050565b80516103c5816113ce565b600060208284031215612ac257612ac2600080fd5b6000610a1f8484612aa256fea264697066735822122047864ea3e040b3d2fbf354f10c4e02109ff6a96e4ea0fdf48b08c17d46dfe64f64736f6c634300081200336080604052604051620012813803806200128183398101604081905262000026916200023c565b600180546001600160a01b03808a166001600160a01b031992831617909255600280548884169083161790556006805486841690831617905560408051808201909152918816808352602083018790526003805490921617815560046200008e878262000401565b5050506005829055600080546001600160a01b0319166001600160a01b03831617905550505050505050620004cd565b60006001600160a01b0382165b92915050565b620000dc81620000be565b8114620000e857600080fd5b50565b8051620000cb81620000d1565b634e487b7160e01b600052604160045260246000fd5b601f19601f83011681016001600160401b0381118282101715620001365762000136620000f8565b6040525050565b60006200014960405190565b90506200015782826200010e565b919050565b60006001600160401b03821115620001785762000178620000f8565b601f19601f83011660200192915050565b60005b83811015620001a65781810151838201526020016200018c565b50506000910152565b6000620001c6620001c0846200015c565b6200013d565b905082815260208101848484011115620001e357620001e3600080fd5b620001f084828562000189565b509392505050565b600082601f8301126200020e576200020e600080fd5b815162000220848260208601620001af565b949350505050565b80620000dc565b8051620000cb8162000228565b600080600080600080600060e0888a0312156200025c576200025c600080fd5b60006200026a8a8a620000eb565b97505060206200027d8a828b01620000eb565b9650506040620002908a828b01620000eb565b60608a015190965090506001600160401b03811115620002b357620002b3600080fd5b620002c18a828b01620001f8565b9450506080620002d48a828b01620000eb565b93505060a0620002e78a828b016200022f565b92505060c0620002fa8a828b01620000eb565b91505092959891949750929550565b634e487b7160e01b600052602260045260246000fd5b6002810460018216806200033457607f821691505b60208210810362000349576200034962000309565b50919050565b6000620000cb6200035d8381565b90565b6200036b836200034f565b815460001960089490940293841b1916921b91909117905550565b60006200039581848462000360565b505050565b81811015620003b957620003b060008262000386565b6001016200039a565b5050565b601f82111562000395576000818152602090206020601f85010481016020851015620003e65750805b620003fa6020601f8601048301826200039a565b5050505050565b81516001600160401b038111156200041d576200041d620000f8565b6200042982546200031f565b62000436828285620003bd565b506020601f8211600181146200046e5760008315620004555750848201515b600019600885021c1981166002850217855550620003fa565b600084815260208120601f198516915b82811015620004a057878501518255602094850194600190920191016200047e565b5084821015620004be5783870151600019601f87166008021c191681555b50505050600202600101905550565b610da480620004dd6000396000f3fe6080604052600436106100c75760003560e01c80637c0b8de211610074578063ddd5e1b21161004e578063ddd5e1b214610223578063ed88c68e14610243578063f15376861461024b57600080fd5b80637c0b8de2146101c35780639f43a92e146101f0578063ce1b815f1461020557600080fd5b8063382b7619116100a5578063382b7619146101515780633ccdcfa114610174578063572b6c051461019457600080fd5b8063010ec441146100cc57806317772ff8146101025780632f70d1ba14610124575b600080fd5b3480156100d857600080fd5b506006546100ec906001600160a01b031681565b6040516100f99190610934565b60405180910390f35b34801561010e57600080fd5b5061012261011d36600461095d565b61026b565b005b34801561013057600080fd5b5061014461013f36600461099a565b6102b3565b6040516100f991906109c3565b34801561015d57600080fd5b5061016760055481565b6040516100f991906109d7565b34801561018057600080fd5b5061016761018f36600461099a565b6102d5565b3480156101a057600080fd5b506101446101af36600461099a565b6000546001600160a01b0391821691161490565b3480156101cf57600080fd5b506001546101e3906001600160a01b031681565b6040516100f99190610a04565b3480156101fc57600080fd5b50600a54610167565b34801561021157600080fd5b506000546001600160a01b03166100ec565b34801561022f57600080fd5b5061012261023e366004610a12565b610326565b610122610627565b34801561025757600080fd5b5061016761026636600461099a565b610871565b6006546001600160a01b031661027f6108c2565b6001600160a01b0316146102ae5760405162461bcd60e51b81526004016102a590610aa9565b60405180910390fd5b600555565b6001600160a01b03811660009081526009602052604081205415155b92915050565b6001600160a01b03811660009081526009602052604081205461030a5760405162461bcd60e51b81526004016102a590610b11565b506001600160a01b031660009081526008602052604090205490565b6002546040517fc683630d00000000000000000000000000000000000000000000000000000000815282916000916001600160a01b039091169063c683630d90610374908590600401610934565b602060405180830381865afa158015610391573d6000803e3d6000fd5b505050506040513d601f19601f820116820180604052508101906103b59190610b34565b6002546040517fc683630d0000000000000000000000000000000000000000000000000000000081529192506001600160a01b03169063c683630d906103ff908590600401610934565b602060405180830381865afa15801561041c573d6000803e3d6000fd5b505050506040513d601f19601f820116820180604052508101906104409190610b34565b61045c5760405162461bcd60e51b81526004016102a590610bad565b83471161047b5760405162461bcd60e51b81526004016102a590610bf1565b6000836001600160a01b03168560405160006040518083038185875af1925050503d80600081146104c8576040519150601f19603f3d011682016040523d82523d6000602084013e6104cd565b606091505b50509050806104ee5760405162461bcd60e51b81526004016102a590610c33565b600060405180608001604052806105036108c2565b6001600160a01b03168152602001866001600160a01b031681526020018781526020014281525090506001600b600082825461053f9190610c72565b9091555050600b546000908152600c60209081526040808320845181547fffffffffffffffffffffffff00000000000000000000000000000000000000009081166001600160a01b039283161783559386015160018301805490951691161790925583015160028201556060830151600390910155600a80548892906105c6908490610c85565b909155504290506001600160a01b0386166105df6108c2565b6001600160a01b03167f2f6639d24651730c7bf57c95ddbf96d66d11477e4ec626876f92c22e5f365e688960405161061791906109d7565b60405180910390a4505050505050565b60055434116106485760405162461bcd60e51b81526004016102a590610cca565b6106706106536108c2565b6001600160a01b0316600090815260096020526040902054151590565b61076e576001546000906001600160a01b0316636a6278426106906108c2565b6040518263ffffffff1660e01b81526004016106ac9190610934565b6020604051808303816000875af11580156106cb573d6000803e3d6000fd5b505050506040513d601f19601f820116820180604052508101906106ef9190610ce5565b905080600960006106fe6108c2565b6001600160a01b0316815260208101919091526040016000205560076107226108c2565b81546001810183556000928352602090922090910180547fffffffffffffffffffffffff0000000000000000000000000000000000000000166001600160a01b03909216919091179055505b346008600061077b6108c2565b6001600160a01b03166001600160a01b0316815260200190815260200160002060008282546107aa9190610c72565b9250508190555034600a60008282546107c39190610c72565b909155505060408051808201909152348152426020820152600d60006107e76108c2565b6001600160a01b031681526020808201929092526040016000908120805460018181018355918352918390208451600290930201918255918301519101554261082e6108c2565b6001600160a01b03167f4928895ba6723e8e27b15f32e4c3054a1b6c7f8c03f133558d6fa42b3928d14c3460405161086691906109d7565b60405180910390a350565b6001600160a01b0381166000908152600960205260408120546108a65760405162461bcd60e51b81526004016102a590610d5e565b506001600160a01b031660009081526009602052604090205490565b6000601436108015906108df57506000546001600160a01b031633145b1561090f57507fffffffffffffffffffffffffffffffffffffffffffffffffffffffffffffffec36013560601c90565b503390565b60006001600160a01b0382166102cf565b61092e81610914565b82525050565b602081016102cf8284610925565b805b811461094f57600080fd5b50565b80356102cf81610942565b60006020828403121561097257610972600080fd5b600061097e8484610952565b949350505050565b61094481610914565b80356102cf81610986565b6000602082840312156109af576109af600080fd5b600061097e848461098f565b80151561092e565b602081016102cf82846109bb565b8061092e565b602081016102cf82846109d1565b60006102cf82610914565b60006102cf826109e5565b61092e816109f0565b602081016102cf82846109fb565b60008060408385031215610a2857610a28600080fd5b6000610a348585610952565b9250506020610a458582860161098f565b9150509250929050565b60238152602081017f46756e647261697365723a2043616c6c6572206d757374206265207265706f7281527f7465720000000000000000000000000000000000000000000000000000000000602082015290505b60400190565b602080825281016102cf81610a4f565b602b8152602081017f46756e64726169736572203a20476976656e2061646472657373206973206e6f81527f74206465706f7369746f7200000000000000000000000000000000000000000060208201529050610aa3565b602080825281016102cf81610ab9565b801515610944565b80516102cf81610b21565b600060208284031215610b4957610b49600080fd5b600061097e8484610b29565b60278152602081017f46756e647261697365723a2041646472657373206973206e6f74206f6e20776881527f6974656c6973740000000000000000000000000000000000000000000000000060208201529050610aa3565b602080825281016102cf81610b55565b60178152602081017f46756e647261697365723a204f766572636c61696d6564000000000000000000815290505b60200190565b602080825281016102cf81610bbd565b60108152602081017f5472616e73666572206661696c65642e0000000000000000000000000000000081529050610beb565b602080825281016102cf81610c01565b7f4e487b7100000000000000000000000000000000000000000000000000000000600052601160045260246000fd5b808201808211156102cf576102cf610c43565b818103818111156102cf576102cf610c43565b601a8152602081017f46756e64726169736572203a20496e76616c69642076616c756500000000000081529050610beb565b602080825281016102cf81610c98565b80516102cf81610942565b600060208284031215610cfa57610cfa600080fd5b600061097e8484610cda565b602b8152602081017f46756e64726169736572203a20676976656e2061646472657373206973206e6f81527f74206465706f7369746f7200000000000000000000000000000000000000000060208201529050610aa3565b602080825281016102cf81610d0656fea26469706673582212200d5c254760f68df8b99a95fd3b276c182b1472c1741768dd606a8ad04467c2f064736f6c63430008120033a2646970667358221220777c6176ede468bec95a4f9b9d994a4abedf0aa12cb8ff0c2da74783040cbd6c64736f6c63430008120033",
  "linkReferences": {},
  "deployedLinkReferences": {}
}