{
    "_format": "hh-sol-artifact-1",
    "contractName": "Factory",
    "sourceName": "contracts/Factory.sol",
    "abi": [
        {
            "inputs": [
                {
                    "internalType": "address",
                    "name": "_recipient",
                    "type": "address"
                },
                {
                    "internalType": "address",
                    "name": "_whitelistContract",
                    "type": "address"
                },
                {
                    "internalType": "string",
                    "name": "_recipientFirstName",
                    "type": "string"
                },
                {
                    "internalType": "string",
                    "name": "_recipientLastName",
                    "type": "string"
                },
                {
                    "internalType": "uint256",
                    "name": "_minimumDonate",
                    "type": "uint256"
                }
            ],
            "name": "deploySet",
            "outputs": [],
            "stateMutability": "nonpayable",
            "type": "function"
        },
        {
            "inputs": [],
            "name": "getAllFundraisers",
            "outputs": [
                {
                    "internalType": "address[]",
                    "name": "",
                    "type": "address[]"
                }
            ],
            "stateMutability": "view",
            "type": "function"
        },
        {
            "inputs": [],
            "name": "getAllNfts",
            "outputs": [
                {
                    "internalType": "address[]",
                    "name": "",
                    "type": "address[]"
                }
            ],
            "stateMutability": "view",
            "type": "function"
        },
        {
            "inputs": [
                {
                    "internalType": "address",
                    "name": "_recipient",
                    "type": "address"
                }
            ],
            "name": "getFundraiseSet",
            "outputs": [
                {
                    "components": [
                        {
                            "internalType": "contract Fundraiser",
                            "name": "fundraiser",
                            "type": "address"
                        },
                        {
                            "internalType": "contract DonaFT",
                            "name": "donaFT",
                            "type": "address"
                        }
                    ],
                    "internalType": "struct Factory.FundraiseSet",
                    "name": "",
                    "type": "tuple"
                }
            ],
            "stateMutability": "view",
            "type": "function"
        }
    ],
    "bytecode": "0x608060405234801561001057600080fd5b50614a25806100206000396000f3fe60806040523480156200001157600080fd5b5060043610620000525760003560e01c806308e356641462000057578063732e8d731462000079578063d456ac0e1462000083578063d9478fa014620000f8575b600080fd5b6200006162000111565b604051620000709190620004cd565b60405180910390f35b6200006162000182565b620000e9620000943660046200050e565b6040805180820182526000808252602091820181905273ffffffffffffffffffffffffffffffffffffffff93841681528082528290208251808401909352805484168352600101549092169181019190915290565b604051620000709190620005a7565b6200010f6200010936600462000623565b620001f1565b005b606060018054806020026020016040519081016040528092919081815260200182805480156200017857602002820191906000526020600020905b815473ffffffffffffffffffffffffffffffffffffffff1681526001909101906020018083116200014c575b5050505050905090565b60606002805480602002602001604051908101604052809291908181526020018280548015620001785760200282019190600052602060002090815473ffffffffffffffffffffffffffffffffffffffff1681526001909101906020018083116200014c575050505050905090565b600030868686868c604051620002079062000421565b620002189695949392919062000718565b604051809103906000f08015801562000235573d6000803e3d6000fd5b50905060008189898989898960405160200162000256949392919062000782565b604051602081830303815290604052338760405162000275906200042f565b620002869695949392919062000809565b604051809103906000f080158015620002a3573d6000803e3d6000fd5b506040517f61b3619c00000000000000000000000000000000000000000000000000000000815290915073ffffffffffffffffffffffffffffffffffffffff8316906361b3619c90620002fb9084906004016200086b565b600060405180830381600087803b1580156200031657600080fd5b505af11580156200032b573d6000803e3d6000fd5b50506001805480820182557fb10e2d527612073b26eecdfd717e6a320cf44b4afac2b0732d9fcbe2b7fa0cf601805473ffffffffffffffffffffffffffffffffffffffff9586167fffffffffffffffffffffffff00000000000000000000000000000000000000009182168117909255600280548085019091557f405787fa12a823e0f2b7631cc41b3ba8828b3321ca811111fa75cd3aa3bb5ace0180549787169782168817905560408051808201825292835260208381019889529e871660009081529e8f9052909d2090518154908616908e161781559451940180549490931693909a169290921790555050505050505050565b61305c806200087c83390190565b61111880620038d883390190565b600073ffffffffffffffffffffffffffffffffffffffff82165b92915050565b62000468816200043d565b82525050565b6200047a82826200045d565b5060200190565b60006200048c825190565b808452602093840193830160005b82811015620004c3578151620004b187826200046e565b9650506020820191506001016200049a565b5093949350505050565b60208082528101620004e0818462000481565b9392505050565b620004f2816200043d565b8114620004fe57600080fd5b50565b80356200045781620004e7565b600060208284031215620005255762000525600080fd5b600062000533848462000501565b949350505050565b600073ffffffffffffffffffffffffffffffffffffffff821662000457565b600062000457826200053b565b600062000457826200055a565b620004688162000567565b80516200058d838262000574565b506020810151620005a2602084018262000574565b505050565b604081016200045782846200057f565b60008083601f840112620005ce57620005ce600080fd5b50813567ffffffffffffffff811115620005eb57620005eb600080fd5b602083019150836001820283011115620006085762000608600080fd5b9250929050565b80620004f2565b803562000457816200060f565b600080600080600080600060a0888a031215620006435762000643600080fd5b6000620006518a8a62000501565b9750506020620006648a828b0162000501565b965050604088013567ffffffffffffffff811115620006865762000686600080fd5b620006948a828b01620005b7565b9550955050606088013567ffffffffffffffff811115620006b857620006b8600080fd5b620006c68a828b01620005b7565b93509350506080620006db8a828b0162000616565b91505092959891949750929550565b82818337506000910152565b8183526020830192506200070c828483620006ea565b50601f01601f19160190565b608081016200072882896200045d565b81810360208301526200073d818789620006f6565b9050818103604083015262000754818587620006f6565b90506200076560608301846200045d565b979650505050505050565b6200077d828483620006ea565b500190565b6200078f81858762000770565b90506200079e81838562000770565b95945050505050565b60005b83811015620007c4578181015183820152602001620007aa565b50506000910152565b6000620007d8825190565b808452602084019350620007f1818560208601620007a7565b601f01601f19169290920192915050565b8062000468565b60c081016200081982896200045d565b6200082860208301886200045d565b6200083760408301876200045d565b81810360608301526200084b8186620007cd565b90506200085c60808301856200045d565b6200076560a083018462000802565b602081016200045782846200045d56fe60806040523480156200001157600080fd5b506040516200305c3803806200305c833981016040819052620000349162000373565b8260405160200162000047919062000442565b60408051601f198184030181529190528260006200006683826200055b565b5060016200007582826200055b565b5050506040518060400160405280826001600160a01b031681526020018484604051602001620000a792919062000627565b60408051808303601f1901815291905290528051600a80546001600160a01b0319166001600160a01b039092169190911781556020820151600b90620000ee90826200055b565b5050600680546001600160a01b0319166001600160a01b038716179055506040805160a081018252600080825260208083018290529282018190526060820181905260808201819052805260079091526200016d907f6d5257204ebe7d88fd91ae87941cb2dd9d8062b64ae5a2bd2d28ec40b9fbf6df906005620001af565b50620001856008620001a660201b620008211760201c565b6200019c6009620001a660201b620008211760201c565b5050505062000652565b80546001019055565b8260058101928215620001e0579160200282015b82811115620001e0578251825591602001919060010190620001c3565b50620001ee929150620001f2565b5090565b5b80821115620001ee5760008155600101620001f3565b60006001600160a01b0382165b92915050565b620002278162000209565b81146200023357600080fd5b50565b805162000216816200021c565b634e487b7160e01b600052604160045260246000fd5b601f19601f83011681016001600160401b038111828210171562000281576200028162000243565b6040525050565b60006200029460405190565b9050620002a2828262000259565b919050565b60006001600160401b03821115620002c357620002c362000243565b601f19601f83011660200192915050565b60005b83811015620002f1578181015183820152602001620002d7565b50506000910152565b6000620003116200030b84620002a7565b62000288565b9050828152602081018484840111156200032e576200032e600080fd5b6200033b848285620002d4565b509392505050565b600082601f830112620003595762000359600080fd5b81516200036b848260208601620002fa565b949350505050565b600080600080608085870312156200038e576200038e600080fd5b60006200039c878762000236565b602087015190955090506001600160401b03811115620003bf57620003bf600080fd5b620003cd8782880162000343565b604087015190945090506001600160401b03811115620003f057620003f0600080fd5b620003fe8782880162000343565b9250506060620004118782880162000236565b91505092959194509250565b600062000428825190565b62000438818560208601620002d4565b9290920192915050565b6b02632ba3a32b910333937b6960a51b8152600c016200021681836200041d565b634e487b7160e01b600052602260045260246000fd5b6002810460018216806200048e57607f821691505b602082108103620004a357620004a362000463565b50919050565b600062000216620004b78381565b90565b620004c583620004a9565b815460001960089490940293841b1916921b91909117905550565b6000620004ef818484620004ba565b505050565b8181101562000513576200050a600082620004e0565b600101620004f4565b5050565b601f821115620004ef576000818152602090206020601f85010481016020851015620005405750805b620005546020601f860104830182620004f4565b5050505050565b81516001600160401b0381111562000577576200057762000243565b62000583825462000479565b6200059082828562000517565b506020601f821160018114620005c85760008315620005af5750848201515b600019600885021c198116600285021785555062000554565b600084815260208120601f198516915b82811015620005fa5787850151825560209485019460019092019101620005d8565b5084821015620006185783870151600019601f87166008021c191681555b50505050600202600101905550565b6200063381846200041d565b600160fd1b815260010190506200064b81836200041d565b9392505050565b6129fa80620006626000396000f3fe608060405234801561001057600080fd5b506004361061011b5760003560e01c80636352211e116100b2578063a22cb46511610081578063b88d4fde11610066578063b88d4fde14610256578063c87b56dd14610269578063e985e9c51461027c57600080fd5b8063a22cb46514610230578063b13825f71461024357600080fd5b80636352211e146101e257806370a08231146101f55780637f98efc61461021557806395d89b411461022857600080fd5b806323b872dd116100ee57806323b872dd1461019357806342842e0e146101a6578063453a2abc146101b957806361b3619c146101cf57600080fd5b806301ffc9a71461012057806306fdde0314610149578063081812fc1461015e578063095ea7b31461017e575b600080fd5b61013361012e366004611363565b6102b8565b604051610140919061138e565b60405180910390f35b61015161039d565b60405161014091906113f2565b61017161016c366004611414565b61042f565b604051610140919061144f565b61019161018c366004611471565b610456565b005b6101916101a13660046114ae565b6104e4565b6101916101b43660046114ae565b610515565b6101c1610530565b6040516101409291906114fe565b6101916101dd36600461151e565b6105d1565b6101716101f0366004611414565b610653565b61020861020336600461151e565b610688565b6040516101409190611545565b610151610223366004611553565b6106cc565b610151610725565b61019161023e366004611588565b610734565b6101916102513660046115cf565b610743565b6101916102643660046116eb565b6107a8565b610151610277366004611414565b6107e0565b61013361028a36600461176a565b6001600160a01b03918216600090815260056020908152604080832093909416825291909152205460ff1690565b60007fffffffff0000000000000000000000000000000000000000000000000000000082167f80ac58cd00000000000000000000000000000000000000000000000000000000148061034b57507fffffffff0000000000000000000000000000000000000000000000000000000082167f5b5e139f00000000000000000000000000000000000000000000000000000000145b8061039757507f01ffc9a7000000000000000000000000000000000000000000000000000000007fffffffff000000000000000000000000000000000000000000000000000000008316145b92915050565b6060600080546103ac906117b3565b80601f01602080910402602001604051908101604052809291908181526020018280546103d8906117b3565b80156104255780601f106103fa57610100808354040283529160200191610425565b820191906000526020600020905b81548152906001019060200180831161040857829003601f168201915b5050505050905090565b600061043a8261082a565b506000908152600460205260409020546001600160a01b031690565b600061046182610653565b9050806001600160a01b0316836001600160a01b03160361049d5760405162461bcd60e51b815260040161049490611839565b60405180910390fd5b336001600160a01b03821614806104b957506104b9813361028a565b6104d55760405162461bcd60e51b8152600401610494906118a1565b6104df838361085e565b505050565b6104ee33826108d9565b61050a5760405162461bcd60e51b815260040161049490611909565b6104df838383610958565b6104df838383604051806020016040528060008152506107a8565b600a8054600b80546001600160a01b03909216929161054e906117b3565b80601f016020809104026020016040519081016040528092919081815260200182805461057a906117b3565b80156105c75780601f1061059c576101008083540402835291602001916105c7565b820191906000526020600020905b8154815290600101906020018083116105aa57829003601f168201915b5050505050905082565b6006546001600160a01b031633146105fb5760405162461bcd60e51b81526004016104949061194d565b600c546001600160a01b0316156106245760405162461bcd60e51b81526004016104949061198f565b600c805473ffffffffffffffffffffffffffffffffffffffff19166001600160a01b0392909216919091179055565b6000818152600260205260408120546001600160a01b0316806103975760405162461bcd60e51b8152600401610494906119d1565b60006001600160a01b0382166106b05760405162461bcd60e51b815260040161049490611a39565b506001600160a01b031660009081526003602052604090205490565b60606106d760085490565b82106106f55760405162461bcd60e51b815260040161049490611a7b565b610700600484611aa1565b600083815260076020526040902090935061071e908490600b610aab565b9392505050565b6060600180546103ac906117b3565b61073f338383610bd9565b5050565b600a546001600160a01b0316331461076d5760405162461bcd60e51b815260040161049490611ae7565b806007600061077b60085490565b815260208101919091526040016000206107969160056112d6565b506107a5600880546001019055565b50565b6107b233836108d9565b6107ce5760405162461bcd60e51b815260040161049490611909565b6107da84848484610c7b565b50505050565b60606107eb8261082a565b61039760006007600060016107ff60085490565b6108099190611b0d565b8152602001908152602001600020600a600101610aab565b80546001019055565b6000818152600260205260409020546001600160a01b03166107a55760405162461bcd60e51b8152600401610494906119d1565b6000818152600460205260409020805473ffffffffffffffffffffffffffffffffffffffff19166001600160a01b03841690811790915581906108a082610653565b6001600160a01b03167f8c5be1e5ebec7d5bd14f71427d1e84f3dd0314c0f7b2291e5b200ac8c7c3b92560405160405180910390a45050565b6000806108e583610653565b9050806001600160a01b0316846001600160a01b0316148061092c57506001600160a01b0380821660009081526005602090815260408083209388168352929052205460ff165b806109505750836001600160a01b03166109458461042f565b6001600160a01b0316145b949350505050565b826001600160a01b031661096b82610653565b6001600160a01b0316146109915760405162461bcd60e51b815260040161049490611b78565b6001600160a01b0382166109b75760405162461bcd60e51b815260040161049490611be0565b826001600160a01b03166109ca82610653565b6001600160a01b0316146109f05760405162461bcd60e51b815260040161049490611b78565b6000818152600460209081526040808320805473ffffffffffffffffffffffffffffffffffffffff199081169091556001600160a01b038781168086526003855283862080547fffffffffffffffffffffffffffffffffffffffffffffffffffffffffffffffff01905590871680865283862080546001019055868652600290945282852080549092168417909155905184937fddf252ad1be2c89b69c2b068fc378daa952ba7f163c4a11628f55a4df523b3ef91a4505050565b60408051808201909152600781526611a3232323232360c91b60208201526060906001859003610b0f575060408051808201909152600781527f23314532363244000000000000000000000000000000000000000000000000006020820152610b8f565b84600203610b51575060408051808201909152600781527f23463646444442000000000000000000000000000000000000000000000000006020820152610b8f565b84600303610b8f575060408051808201909152600781527f234532423642460000000000000000000000000000000000000000000000000060208201525b80610b9a8685610cae565b610ba387610dd3565b610bad8888610fbb565b604051602001610bc09493929190611c8e565b6040516020818303038152906040529150509392505050565b816001600160a01b0316836001600160a01b031603610c0a5760405162461bcd60e51b815260040161049490611e79565b6001600160a01b0383811660008181526005602090815260408083209487168084529490915290819020805460ff1916851515179055517f17307eab39ab6107e8899845ad3d59bd9653f200f220920489ca2b5937696c3190610c6e90859061138e565b60405180910390a3505050565b610c86848484610958565b610c928484848461118b565b6107da5760405162461bcd60e51b815260040161049490611ee1565b60408051808201909152600781527f233234323632420000000000000000000000000000000000000000000000000060208201526060906001849003610d28575060408051808201909152600781527f23463746454443000000000000000000000000000000000000000000000000006020820152610da8565b83600203610d6a575060408051808201909152600781527f23324633413339000000000000000000000000000000000000000000000000006020820152610da8565b83600303610da8575060408051808201909152600781527f233543324532440000000000000000000000000000000000000000000000000060208201525b8083604051602001610dbb929190611f63565b60405160208183030381529060405291505092915050565b60408051808201825260078082527f234535414144330000000000000000000000000000000000000000000000000060208084019190915283518085019094529083527f2344443945434400000000000000000000000000000000000000000000000000908301526060916001849003610ebc576040518060400160405280600781526020017f233541423741430000000000000000000000000000000000000000000000000081525091506040518060400160405280600781526020017f23333337373730000000000000000000000000000000000000000000000000008152509050610f86565b83600203610f39576040518060400160405280600781526020017f234234443836340000000000000000000000000000000000000000000000000081525091506040518060400160405280600781526020017f23423444383634000000000000000000000000000000000000000000000000008152509050610f86565b83600303610f86576040518060400160405280600781526020016611a3232323232360c91b81525091506040518060400160405280600781526020016611a3232323232360c91b81525090505b81818283848586604051602001610fa397969594939291906122ba565b60405160208183030381529060405292505050919050565b60408051808201909152600781527f233234323632420000000000000000000000000000000000000000000000000060208201526060906001849003611035575060408051808201909152600781527f234637464544430000000000000000000000000000000000000000000000000060208201526110b5565b83600203611077575060408051808201909152600781527f233246334133390000000000000000000000000000000000000000000000000060208201526110b5565b836003036110b5575060408051808201909152600781527f233543324532440000000000000000000000000000000000000000000000000060208201525b808084600001546040516020016110cc91906124e7565b60408051601f198184030181529190528386600101546040516020016110f291906124e7565b60408051601f1981840301815291905285886002015460405160200161111891906124e7565b60408051601f19818403018152919052878a6003015460405160200161113e91906124e7565b60408051601f19818403018152919052898c6004015460405160200161116491906124e7565b60408051601f1981840301815290829052610dbb9b9a999897969594939291602001612683565b60006001600160a01b0384163b156112cb576040517f150b7a020000000000000000000000000000000000000000000000000000000081526001600160a01b0385169063150b7a02906111e8903390899088908890600401612954565b6020604051808303816000875af1925050508015611223575060408051601f3d908101601f19168201909252611220918101906129a3565b60015b611280573d808015611251576040519150601f19603f3d011682016040523d82523d6000602084013e611256565b606091505b5080516000036112785760405162461bcd60e51b815260040161049490611ee1565b805181602001fd5b7fffffffff00000000000000000000000000000000000000000000000000000000167f150b7a0200000000000000000000000000000000000000000000000000000000149050610950565b506001949350505050565b8260058101928215611304579160200282015b828111156113045782358255916020019190600101906112e9565b50611310929150611314565b5090565b5b808211156113105760008155600101611315565b7fffffffff0000000000000000000000000000000000000000000000000000000081165b81146107a557600080fd5b803561039781611329565b60006020828403121561137857611378600080fd5b60006109508484611358565b8015155b82525050565b602081016103978284611384565b60005b838110156113b757818101518382015260200161139f565b50506000910152565b60006113ca825190565b8084526020840193506113e181856020860161139c565b601f01601f19169290920192915050565b6020808252810161071e81846113c0565b8061134d565b803561039781611403565b60006020828403121561142957611429600080fd5b60006109508484611409565b60006001600160a01b038216610397565b61138881611435565b602081016103978284611446565b61134d81611435565b80356103978161145d565b6000806040838503121561148757611487600080fd5b60006114938585611466565b92505060206114a485828601611409565b9150509250929050565b6000806000606084860312156114c6576114c6600080fd5b60006114d28686611466565b93505060206114e386828701611466565b92505060406114f486828701611409565b9150509250925092565b6040810161150c8285611446565b818103602083015261095081846113c0565b60006020828403121561153357611533600080fd5b60006109508484611466565b80611388565b60208101610397828461153f565b6000806040838503121561156957611569600080fd5b60006114938585611409565b80151561134d565b803561039781611575565b6000806040838503121561159e5761159e600080fd5b60006115aa8585611466565b92505060206114a48582860161157d565b8060a0810183101561039757610397600080fd5b600060a082840312156115e4576115e4600080fd5b600061095084846115bb565b634e487b7160e01b600052604160045260246000fd5b601f19601f830116810181811067ffffffffffffffff8211171561162c5761162c6115f0565b6040525050565b600061163e60405190565b905061164a8282611606565b919050565b600067ffffffffffffffff821115611669576116696115f0565b601f19601f83011660200192915050565b82818337506000910152565b60006116996116948461164f565b611633565b9050828152602081018484840111156116b4576116b4600080fd5b6116bf84828561167a565b509392505050565b600082601f8301126116db576116db600080fd5b8135610950848260208601611686565b6000806000806080858703121561170457611704600080fd5b60006117108787611466565b945050602061172187828801611466565b935050604061173287828801611409565b925050606085013567ffffffffffffffff81111561175257611752600080fd5b61175e878288016116c7565b91505092959194509250565b6000806040838503121561178057611780600080fd5b600061178c8585611466565b92505060206114a485828601611466565b634e487b7160e01b600052602260045260246000fd5b6002810460018216806117c757607f821691505b6020821081036117d9576117d961179d565b50919050565b60218152602081017f4552433732313a20617070726f76616c20746f2063757272656e74206f776e6581527f7200000000000000000000000000000000000000000000000000000000000000602082015290505b60400190565b60208082528101610397816117df565b603d8152602081017f4552433732313a20617070726f76652063616c6c6572206973206e6f7420746f81527f6b656e206f776e6572206f7220617070726f76656420666f7220616c6c00000060208201529050611833565b6020808252810161039781611849565b602d8152602081017f4552433732313a2063616c6c6572206973206e6f7420746f6b656e206f776e6581527f72206f7220617070726f7665640000000000000000000000000000000000000060208201529050611833565b60208082528101610397816118b1565b600c8152602081017f4f6e6c7920666163746f72790000000000000000000000000000000000000000815290505b60200190565b6020808252810161039781611919565b600b8152602081017f416c72656164792073657400000000000000000000000000000000000000000081529050611947565b602080825281016103978161195d565b60188152602081017f4552433732313a20696e76616c696420746f6b656e204944000000000000000081529050611947565b602080825281016103978161199f565b60298152602081017f4552433732313a2061646472657373207a65726f206973206e6f74206120766181527f6c6964206f776e6572000000000000000000000000000000000000000000000060208201529050611833565b60208082528101610397816119e1565b600c8152602081017f446f65736e74206578697374000000000000000000000000000000000000000081529050611947565b6020808252810161039781611a49565b634e487b7160e01b600052601260045260246000fd5b600082611ab057611ab0611a8b565b500690565b600b8152602081017f4f6e6c792077726974657200000000000000000000000000000000000000000081529050611947565b6020808252810161039781611ab5565b634e487b7160e01b600052601160045260246000fd5b8181038181111561039757610397611af7565b60258152602081017f4552433732313a207472616e736665722066726f6d20696e636f72726563742081527f6f776e657200000000000000000000000000000000000000000000000000000060208201529050611833565b6020808252810161039781611b20565b60248152602081017f4552433732313a207472616e7366657220746f20746865207a65726f2061646481527f726573730000000000000000000000000000000000000000000000000000000060208201529050611833565b6020808252810161039781611b88565b7f3c673e000000000000000000000000000000000000000000000000000000000081525b60030190565b6000611c24825190565b611c3281856020860161139c565b9290920192915050565b7f3b222f3e0000000000000000000000000000000000000000000000000000000081525b60040190565b7f3c2f673e000000000000000000000000000000000000000000000000000000008152611c60565b7f3c7376672069643d224c617965725f322220646174612d6e616d653d224c617981527f657220322220786d6c6e733d22687474703a2f2f7777772e77332e6f72672f3260208201527f3030302f737667222076696577426f783d2230203020333435203436352e363660408201527f223e00000000000000000000000000000000000000000000000000000000000060608201527f3c672069643d224c617965725f312d322220646174612d6e616d653d224c617960628201527f65722031223e00000000000000000000000000000000000000000000000000006082820152608801611d7b81611bf0565b7f3c726563742077696474683d2233343522206865696768743d2234363522207281527f783d223137222072793d22313722207374796c653d2266696c6c3a20000000006020820152603c019050611dd38186611c1a565b9050611dde81611c3c565b9050611dea8185611c1a565b9050611df68184611c1a565b9050611e028183611c1a565b9050611e0d81611c66565b9050611e1881611c66565b7f3c2f7376673e0000000000000000000000000000000000000000000000000000815260060195945050505050565b60198152602081017f4552433732313a20617070726f766520746f2063616c6c65720000000000000081529050611947565b6020808252810161039781611e47565b60328152602081017f4552433732313a207472616e7366657220746f206e6f6e20455243373231526581527f63656976657220696d706c656d656e746572000000000000000000000000000060208201529050611833565b6020808252810161039781611e89565b60008154611efe816117b3565b600182168015611f155760018114611f2a57611f5a565b60ff1983168652811515820286019350611f5a565b60008581526020902060005b83811015611f5257815488820152600190910190602001611f36565b505081860193505b50505092915050565b7f3c74657874207472616e73666f726d3d227472616e736c6174652836352e323681527f203434312e33352922207374796c653d2266696c6c3a200000000000000000006020820152603701611fb98184611c1a565b7f3b20666f6e742d66616d696c793a20506f7070696e732d53656d69426f6c642c81527f20506f7070696e733b20666f6e742d73697a653a20343170783b20666f6e742d60208201527f7765696768743a203630303b206c65747465722d73706163696e673a202d2e3060408201527f34656d3b223e3c747370616e20783d22302220793d222d3138223e00000000006060820152607b01905061205d8183611ef1565b7f3c2f747370616e3e3c2f746578743e000000000000000000000000000000000081529050600f810161071e565b7f3b207374726f6b652d6d697465726c696d69743a2031303b222f3e000000000081525b601b0190565b7f3c6c696e652078313d2233322e3731222079313d223134362e3833222078323d81527f223331302e3837222079323d223134362e383322207374796c653d2266696c6c60208201526f01d103737b7329d9039ba3937b5b29d160851b60408201525b60500190565b7f3c6c696e652078313d2233322e3731222079313d223139302e3838222078323d81527f223331302e3837222079323d223139302e383822207374796c653d2266696c6c60208201526f01d103737b7329d9039ba3937b5b29d160851b6040820152612118565b7f3c6c696e652078313d2233322e3731222079313d223233342e3932222078323d81527f223331302e3837222079323d223233342e393222207374796c653d2266696c6c60208201526f01d103737b7329d9039ba3937b5b29d160851b6040820152612118565b7f3c6c696e652078313d2233322e3731222079313d223237382e3937222078323d81527f223331302e3837222079323d223237382e393722207374796c653d2266696c6c60208201526f01d103737b7329d9039ba3937b5b29d160851b6040820152612118565b7f3c6c696e652078313d2233322e3731222079313d223332332e3031222078323d81527f223331302e3837222079323d223332332e303122207374796c653d2266696c6c60208201526f01d103737b7329d9039ba3937b5b29d160851b6040820152612118565b7f3c74657874207472616e73666f726d3d227472616e736c617465283238332e3281527f35203430312e38392922207374796c653d2266696c6c3a20000000000000000060208201526038016123108189611c1a565b7f3b20666f6e742d66616d696c793a20506f7070696e732d526567756c61722c2081527f506f7070696e733b20666f6e742d73697a653a20313470783b223e3c7473706160208201527f6e20783d222d31342220793d222d3138223e46524f4d3c2f747370616e3e3c2f60408201527f746578743e00000000000000000000000000000000000000000000000000000060608201527f3c6c696e652078313d2233322e3731222079313d2238322e3738222078323d2260658201527f3230302e3838222079323d2238322e373822207374796c653d2266696c6c3a2060858201527f6e6f6e653b207374726f6b653a2000000000000000000000000000000000000060a582015260b30190506124268188611c1a565b90506124318161208b565b905061243c816120b5565b90506124488187611c1a565b90506124538161208b565b905061245e8161211e565b905061246a8186611c1a565b90506124758161208b565b905061248081612185565b905061248c8185611c1a565b90506124978161208b565b90506124a2816121ec565b90506124ae8184611c1a565b90506124b98161208b565b90506124c481612253565b90506124d08183611c1a565b90506124db8161208b565b98975050505050505050565b6124f1818361153f565b602001919050565b7f3b223e446561722c204d7920667269656e642e3c2f747370616e3e000000000081526120af565b7f3b223e00000000000000000000000000000000000000000000000000000000008152611c14565b7f3c747370616e20783d2231352220793d2231303822207374796c653d226c657481527f7465722d73706163696e673a202e3032656d3b2066696c6c3a2000000000000060208201525b603a0190565b7f3c747370616e20783d2231352220793d2231353222207374796c653d226c657481527f7465722d73706163696e673a202e3032656d3b2066696c6c3a200000000000006020820152612593565b7f3c747370616e20783d2231352220793d2231393622207374796c653d226c657481527f7465722d73706163696e673a202e3032656d3b2066696c6c3a200000000000006020820152612593565b7f3c747370616e20783d2231352220793d2232343022207374796c653d226c657481527f7465722d73706163696e673a202e3032656d3b2066696c6c3a200000000000006020820152612593565b7f3c74657874207472616e73666f726d3d227472616e736c6174652832342e342081527f37332e36362922207374796c653d2266696c6c3a20233234323632623b20666f60208201527f6e742d66616d696c793a20534650726f446973706c61792d526567756c61722c60408201527f202661706f733b53462050726f20446973706c61792661706f733b3b20666f6e60608201527f742d73697a653a20313870783b223e000000000000000000000000000000000060808201527f3c747370616e20783d2231352220793d223022207374796c653d2266696c6c3a608f8201527f200000000000000000000000000000000000000000000000000000000000000060af82015260b001612797818d611c1a565b90506127a2816124f9565b7f3c747370616e20783d2231352220793d22363422207374796c653d226c65747481527f65722d73706163696e673a202e3032656d3b2066696c6c3a2000000000000000602082015260390190506127fa818c611c1a565b905061280581612521565b9050612811818b611c1a565b671e17ba39b830b71f60c11b8152600801905061282d81612549565b9050612839818a611c1a565b905061284481612521565b90506128508189611c1a565b671e17ba39b830b71f60c11b8152600801905061286c81612599565b90506128788188611c1a565b905061288381612521565b905061288f8187611c1a565b671e17ba39b830b71f60c11b815260080190506128ab816125e7565b90506128b78186611c1a565b90506128c281612521565b90506128ce8185611c1a565b671e17ba39b830b71f60c11b815260080190506128ea81612635565b90506128f68184611c1a565b905061290181612521565b905061290d8183611c1a565b671e17ba39b830b71f60c11b81527f3c2f746578743e000000000000000000000000000000000000000000000000006008820152600f019c9b505050505050505050505050565b608081016129628287611446565b61296f6020830186611446565b61297c604083018561153f565b818103606083015261298e81846113c0565b9695505050505050565b805161039781611329565b6000602082840312156129b8576129b8600080fd5b6000610950848461299856fea2646970667358221220c93d326145224ac3a5cf81f36cc1c41de2354785aa3316533dd57a07efd461bd64736f6c634300081200336080604052604051620011183803806200111883398101604081905262000026916200021e565b600080546001600160a01b038089166001600160a01b031992831617909255600180548784169083161790556005805485841690831617905560408051808201909152918716808352602083018690526002805490921617815560036200008e8682620003cc565b50505060045550620004989350505050565b60006001600160a01b0382165b92915050565b620000be81620000a0565b8114620000ca57600080fd5b50565b8051620000ad81620000b3565b634e487b7160e01b600052604160045260246000fd5b601f19601f83011681016001600160401b0381118282101715620001185762000118620000da565b6040525050565b60006200012b60405190565b9050620001398282620000f0565b919050565b60006001600160401b038211156200015a576200015a620000da565b601f19601f83011660200192915050565b60005b83811015620001885781810151838201526020016200016e565b50506000910152565b6000620001a8620001a2846200013e565b6200011f565b905082815260208101848484011115620001c557620001c5600080fd5b620001d28482856200016b565b509392505050565b600082601f830112620001f057620001f0600080fd5b81516200020284826020860162000191565b949350505050565b80620000be565b8051620000ad816200020a565b60008060008060008060c087890312156200023c576200023c600080fd5b60006200024a8989620000cd565b96505060206200025d89828a01620000cd565b95505060406200027089828a01620000cd565b606089015190955090506001600160401b03811115620002935762000293600080fd5b620002a189828a01620001da565b9350506080620002b489828a01620000cd565b92505060a0620002c789828a0162000211565b9150509295509295509295565b634e487b7160e01b600052602260045260246000fd5b600281046001821680620002ff57607f821691505b602082108103620003145762000314620002d4565b50919050565b6000620000ad620003288381565b90565b62000336836200031a565b815460001960089490940293841b1916921b91909117905550565b6000620003608184846200032b565b505050565b8181101562000384576200037b60008262000351565b60010162000365565b5050565b601f82111562000360576000818152602090206020601f85010481016020851015620003b15750805b620003c56020601f86010483018262000365565b5050505050565b81516001600160401b03811115620003e857620003e8620000da565b620003f48254620002ea565b6200040182828562000388565b506020601f821160018114620004395760008315620004205750848201515b600019600885021c1981166002850217855550620003c5565b600084815260208120601f198516915b828110156200046b578785015182556020948501946001909201910162000449565b5084821015620004895783870151600019601f87166008021c191681555b50505050600202600101905550565b610c7080620004a86000396000f3fe6080604052600436106100b15760003560e01c80637c0b8de211610069578063ddd5e1b21161004e578063ddd5e1b2146101c0578063ed88c68e146101e0578063f1537686146101e857600080fd5b80637c0b8de21461017e5780639f43a92e146101ab57600080fd5b80632f70d1ba1161009a5780632f70d1ba1461010e578063382b76191461013b5780633ccdcfa11461015e57600080fd5b8063010ec441146100b657806317772ff8146100ec575b600080fd5b3480156100c257600080fd5b506005546100d6906001600160a01b031681565b6040516100e39190610800565b60405180910390f35b3480156100f857600080fd5b5061010c610107366004610829565b610208565b005b34801561011a57600080fd5b5061012e610129366004610866565b610240565b6040516100e3919061088f565b34801561014757600080fd5b5061015160045481565b6040516100e391906108a3565b34801561016a57600080fd5b50610151610179366004610866565b610262565b34801561018a57600080fd5b5060005461019e906001600160a01b031681565b6040516100e391906108d0565b3480156101b757600080fd5b50600954610151565b3480156101cc57600080fd5b5061010c6101db3660046108de565b6102b3565b61010c61059b565b3480156101f457600080fd5b50610151610203366004610866565b61078f565b6005546001600160a01b0316331461023b5760405162461bcd60e51b815260040161023290610975565b60405180910390fd5b600455565b6001600160a01b03811660009081526008602052604081205415155b92915050565b6001600160a01b0381166000908152600860205260408120546102975760405162461bcd60e51b8152600401610232906109dd565b506001600160a01b031660009081526007602052604090205490565b6001546040517fc683630d00000000000000000000000000000000000000000000000000000000815282916000916001600160a01b039091169063c683630d90610301908590600401610800565b602060405180830381865afa15801561031e573d6000803e3d6000fd5b505050506040513d601f19601f820116820180604052508101906103429190610a00565b6001546040517fc683630d0000000000000000000000000000000000000000000000000000000081529192506001600160a01b03169063c683630d9061038c908590600401610800565b602060405180830381865afa1580156103a9573d6000803e3d6000fd5b505050506040513d601f19601f820116820180604052508101906103cd9190610a00565b6103e95760405162461bcd60e51b815260040161023290610a79565b8347116104085760405162461bcd60e51b815260040161023290610abd565b6000836001600160a01b03168560405160006040518083038185875af1925050503d8060008114610455576040519150601f19603f3d011682016040523d82523d6000602084013e61045a565b606091505b505090508061047b5760405162461bcd60e51b815260040161023290610aff565b604080516080810182523381526001600160a01b0386166020820152908101869052426060820152600a8054600191906000906104b9908490610b3e565b9091555050600a546000908152600b60209081526040808320845181547fffffffffffffffffffffffff00000000000000000000000000000000000000009081166001600160a01b03928316178355938601516001830180549095169116179092558301516002820155606083015160039091015560098054889290610540908490610b51565b9250508190555042856001600160a01b0316336001600160a01b03167f2f6639d24651730c7bf57c95ddbf96d66d11477e4ec626876f92c22e5f365e688960405161058b91906108a3565b60405180910390a4505050505050565b60045434116105bc5760405162461bcd60e51b815260040161023290610b96565b336000908152600860205260409020546106cb57600080546040517f6a6278420000000000000000000000000000000000000000000000000000000081526001600160a01b0390911690636a6278429061061a903390600401610800565b6020604051808303816000875af1158015610639573d6000803e3d6000fd5b505050506040513d601f19601f8201168201806040525081019061065d9190610bb1565b336000818152600860205260408120929092556006805460018101825592527ff652222313e28459528d920b65115c16c04f3efc82aaedc97be59f3f377c0d3f90910180547fffffffffffffffffffffffff0000000000000000000000000000000000000000169091179055505b33600090815260076020526040812080543492906106ea908490610b3e565b9250508190555034600960008282546107039190610b3e565b909155505060408051808201825234808252426020808401828152336000818152600c84528781208054600181810183559183529490912087516002909502019384559151929091019190915593519293909290917f4928895ba6723e8e27b15f32e4c3054a1b6c7f8c03f133558d6fa42b3928d14c9161078491906108a3565b60405180910390a350565b6001600160a01b0381166000908152600860205260408120546107c45760405162461bcd60e51b815260040161023290610c2a565b506001600160a01b031660009081526008602052604090205490565b60006001600160a01b03821661025c565b6107fa816107e0565b82525050565b6020810161025c82846107f1565b805b811461081b57600080fd5b50565b803561025c8161080e565b60006020828403121561083e5761083e600080fd5b600061084a848461081e565b949350505050565b610810816107e0565b803561025c81610852565b60006020828403121561087b5761087b600080fd5b600061084a848461085b565b8015156107fa565b6020810161025c8284610887565b806107fa565b6020810161025c828461089d565b600061025c826107e0565b600061025c826108b1565b6107fa816108bc565b6020810161025c82846108c7565b600080604083850312156108f4576108f4600080fd5b6000610900858561081e565b92505060206109118582860161085b565b9150509250929050565b60238152602081017f46756e647261697365723a2043616c6c6572206d757374206265207265706f7281527f7465720000000000000000000000000000000000000000000000000000000000602082015290505b60400190565b6020808252810161025c8161091b565b602b8152602081017f46756e64726169736572203a20476976656e2061646472657373206973206e6f81527f74206465706f7369746f720000000000000000000000000000000000000000006020820152905061096f565b6020808252810161025c81610985565b801515610810565b805161025c816109ed565b600060208284031215610a1557610a15600080fd5b600061084a84846109f5565b60278152602081017f46756e647261697365723a2041646472657373206973206e6f74206f6e20776881527f6974656c697374000000000000000000000000000000000000000000000000006020820152905061096f565b6020808252810161025c81610a21565b60178152602081017f46756e647261697365723a204f766572636c61696d6564000000000000000000815290505b60200190565b6020808252810161025c81610a89565b60108152602081017f5472616e73666572206661696c65642e0000000000000000000000000000000081529050610ab7565b6020808252810161025c81610acd565b7f4e487b7100000000000000000000000000000000000000000000000000000000600052601160045260246000fd5b8082018082111561025c5761025c610b0f565b8181038181111561025c5761025c610b0f565b601a8152602081017f46756e64726169736572203a20496e76616c69642076616c756500000000000081529050610ab7565b6020808252810161025c81610b64565b805161025c8161080e565b600060208284031215610bc657610bc6600080fd5b600061084a8484610ba6565b602b8152602081017f46756e64726169736572203a20676976656e2061646472657373206973206e6f81527f74206465706f7369746f720000000000000000000000000000000000000000006020820152905061096f565b6020808252810161025c81610bd256fea264697066735822122050848915375908279e02cde91aa5e1d85c242ea2cc80f1b90e7d929789f0cb7f64736f6c63430008120033a26469706673582212209d79f2ea27bbf33e012242c6c4d1d19b3266f0e83e07ed630bae38c242ce659064736f6c63430008120033",
    "linkReferences": {},
    "deployedLinkReferences": {}
}