{
  "_format": "hh-sol-artifact-1",
  "contractName": "Fundraiser",
  "sourceName": "contracts/Fundraiser.sol",
  "abi": [
    {
      "inputs": [
        {
          "internalType": "address",
          "name": "_tokenAddress",
          "type": "address"
        },
        {
          "internalType": "address",
          "name": "_recipient",
          "type": "address"
        },
        {
          "internalType": "address",
          "name": "_whitelist",
          "type": "address"
        },
        {
          "internalType": "string",
          "name": "_recipientName",
          "type": "string"
        },
        {
          "internalType": "address",
          "name": "_reporter",
          "type": "address"
        },
        {
          "internalType": "uint256",
          "name": "_minimumDonate",
          "type": "uint256"
        },
        {
          "internalType": "address",
          "name": "_forwarder",
          "type": "address"
        }
      ],
      "stateMutability": "payable",
      "type": "constructor"
    },
    {
      "anonymous": false,
      "inputs": [
        {
          "indexed": true,
          "internalType": "address",
          "name": "claimer",
          "type": "address"
        },
        {
          "indexed": true,
          "internalType": "address",
          "name": "paymentDst",
          "type": "address"
        },
        {
          "indexed": false,
          "internalType": "uint256",
          "name": "amount",
          "type": "uint256"
        },
        {
          "indexed": true,
          "internalType": "uint256",
          "name": "time",
          "type": "uint256"
        }
      ],
      "name": "Claimed",
      "type": "event"
    },
    {
      "anonymous": false,
      "inputs": [
        {
          "indexed": true,
          "internalType": "address",
          "name": "donator",
          "type": "address"
        },
        {
          "indexed": false,
          "internalType": "uint256",
          "name": "amount",
          "type": "uint256"
        },
        {
          "indexed": true,
          "internalType": "uint256",
          "name": "time",
          "type": "uint256"
        }
      ],
      "name": "Donated",
      "type": "event"
    },
    {
      "inputs": [],
      "name": "NFT",
      "outputs": [
        {
          "internalType": "contract IDonaFT",
          "name": "",
          "type": "address"
        }
      ],
      "stateMutability": "view",
      "type": "function"
    },
    {
      "inputs": [
        {
          "internalType": "uint256",
          "name": "_amount",
          "type": "uint256"
        },
        {
          "internalType": "address",
          "name": "_whitelistAddr",
          "type": "address"
        }
      ],
      "name": "claim",
      "outputs": [],
      "stateMutability": "nonpayable",
      "type": "function"
    },
    {
      "inputs": [],
      "name": "donate",
      "outputs": [],
      "stateMutability": "payable",
      "type": "function"
    },
    {
      "inputs": [],
      "name": "getCurrentFundAmount",
      "outputs": [
        {
          "internalType": "uint256",
          "name": "",
          "type": "uint256"
        }
      ],
      "stateMutability": "view",
      "type": "function"
    },
    {
      "inputs": [
        {
          "internalType": "address",
          "name": "addr",
          "type": "address"
        }
      ],
      "name": "getDepositorFundAmount",
      "outputs": [
        {
          "internalType": "uint256",
          "name": "",
          "type": "uint256"
        }
      ],
      "stateMutability": "view",
      "type": "function"
    },
    {
      "inputs": [
        {
          "internalType": "address",
          "name": "addr",
          "type": "address"
        }
      ],
      "name": "getTokenId",
      "outputs": [
        {
          "internalType": "uint256",
          "name": "",
          "type": "uint256"
        }
      ],
      "stateMutability": "view",
      "type": "function"
    },
    {
      "inputs": [],
      "name": "getTrustedForwarder",
      "outputs": [
        {
          "internalType": "address",
          "name": "forwarder",
          "type": "address"
        }
      ],
      "stateMutability": "view",
      "type": "function"
    },
    {
      "inputs": [
        {
          "internalType": "address",
          "name": "addr",
          "type": "address"
        }
      ],
      "name": "isDepositor",
      "outputs": [
        {
          "internalType": "bool",
          "name": "",
          "type": "bool"
        }
      ],
      "stateMutability": "view",
      "type": "function"
    },
    {
      "inputs": [
        {
          "internalType": "address",
          "name": "forwarder",
          "type": "address"
        }
      ],
      "name": "isTrustedForwarder",
      "outputs": [
        {
          "internalType": "bool",
          "name": "",
          "type": "bool"
        }
      ],
      "stateMutability": "view",
      "type": "function"
    },
    {
      "inputs": [],
      "name": "minimumDonate",
      "outputs": [
        {
          "internalType": "uint256",
          "name": "",
          "type": "uint256"
        }
      ],
      "stateMutability": "view",
      "type": "function"
    },
    {
      "inputs": [],
      "name": "reporter",
      "outputs": [
        {
          "internalType": "address",
          "name": "",
          "type": "address"
        }
      ],
      "stateMutability": "view",
      "type": "function"
    },
    {
      "inputs": [
        {
          "internalType": "uint256",
          "name": "_minimumDonate",
          "type": "uint256"
        }
      ],
      "name": "setMinimumDonate",
      "outputs": [],
      "stateMutability": "nonpayable",
      "type": "function"
    }
  ],
  "bytecode": "0x6080604052604051620012813803806200128183398101604081905262000026916200023c565b600180546001600160a01b03808a166001600160a01b031992831617909255600280548884169083161790556006805486841690831617905560408051808201909152918816808352602083018790526003805490921617815560046200008e878262000401565b5050506005829055600080546001600160a01b0319166001600160a01b03831617905550505050505050620004cd565b60006001600160a01b0382165b92915050565b620000dc81620000be565b8114620000e857600080fd5b50565b8051620000cb81620000d1565b634e487b7160e01b600052604160045260246000fd5b601f19601f83011681016001600160401b0381118282101715620001365762000136620000f8565b6040525050565b60006200014960405190565b90506200015782826200010e565b919050565b60006001600160401b03821115620001785762000178620000f8565b601f19601f83011660200192915050565b60005b83811015620001a65781810151838201526020016200018c565b50506000910152565b6000620001c6620001c0846200015c565b6200013d565b905082815260208101848484011115620001e357620001e3600080fd5b620001f084828562000189565b509392505050565b600082601f8301126200020e576200020e600080fd5b815162000220848260208601620001af565b949350505050565b80620000dc565b8051620000cb8162000228565b600080600080600080600060e0888a0312156200025c576200025c600080fd5b60006200026a8a8a620000eb565b97505060206200027d8a828b01620000eb565b9650506040620002908a828b01620000eb565b60608a015190965090506001600160401b03811115620002b357620002b3600080fd5b620002c18a828b01620001f8565b9450506080620002d48a828b01620000eb565b93505060a0620002e78a828b016200022f565b92505060c0620002fa8a828b01620000eb565b91505092959891949750929550565b634e487b7160e01b600052602260045260246000fd5b6002810460018216806200033457607f821691505b60208210810362000349576200034962000309565b50919050565b6000620000cb6200035d8381565b90565b6200036b836200034f565b815460001960089490940293841b1916921b91909117905550565b60006200039581848462000360565b505050565b81811015620003b957620003b060008262000386565b6001016200039a565b5050565b601f82111562000395576000818152602090206020601f85010481016020851015620003e65750805b620003fa6020601f8601048301826200039a565b5050505050565b81516001600160401b038111156200041d576200041d620000f8565b6200042982546200031f565b62000436828285620003bd565b506020601f8211600181146200046e5760008315620004555750848201515b600019600885021c1981166002850217855550620003fa565b600084815260208120601f198516915b82811015620004a057878501518255602094850194600190920191016200047e565b5084821015620004be5783870151600019601f87166008021c191681555b50505050600202600101905550565b610da480620004dd6000396000f3fe6080604052600436106100c75760003560e01c80637c0b8de211610074578063ddd5e1b21161004e578063ddd5e1b214610223578063ed88c68e14610243578063f15376861461024b57600080fd5b80637c0b8de2146101c35780639f43a92e146101f0578063ce1b815f1461020557600080fd5b8063382b7619116100a5578063382b7619146101515780633ccdcfa114610174578063572b6c051461019457600080fd5b8063010ec441146100cc57806317772ff8146101025780632f70d1ba14610124575b600080fd5b3480156100d857600080fd5b506006546100ec906001600160a01b031681565b6040516100f99190610934565b60405180910390f35b34801561010e57600080fd5b5061012261011d36600461095d565b61026b565b005b34801561013057600080fd5b5061014461013f36600461099a565b6102b3565b6040516100f991906109c3565b34801561015d57600080fd5b5061016760055481565b6040516100f991906109d7565b34801561018057600080fd5b5061016761018f36600461099a565b6102d5565b3480156101a057600080fd5b506101446101af36600461099a565b6000546001600160a01b0391821691161490565b3480156101cf57600080fd5b506001546101e3906001600160a01b031681565b6040516100f99190610a04565b3480156101fc57600080fd5b50600a54610167565b34801561021157600080fd5b506000546001600160a01b03166100ec565b34801561022f57600080fd5b5061012261023e366004610a12565b610326565b610122610627565b34801561025757600080fd5b5061016761026636600461099a565b610871565b6006546001600160a01b031661027f6108c2565b6001600160a01b0316146102ae5760405162461bcd60e51b81526004016102a590610aa9565b60405180910390fd5b600555565b6001600160a01b03811660009081526009602052604081205415155b92915050565b6001600160a01b03811660009081526009602052604081205461030a5760405162461bcd60e51b81526004016102a590610b11565b506001600160a01b031660009081526008602052604090205490565b6002546040517fc683630d00000000000000000000000000000000000000000000000000000000815282916000916001600160a01b039091169063c683630d90610374908590600401610934565b602060405180830381865afa158015610391573d6000803e3d6000fd5b505050506040513d601f19601f820116820180604052508101906103b59190610b34565b6002546040517fc683630d0000000000000000000000000000000000000000000000000000000081529192506001600160a01b03169063c683630d906103ff908590600401610934565b602060405180830381865afa15801561041c573d6000803e3d6000fd5b505050506040513d601f19601f820116820180604052508101906104409190610b34565b61045c5760405162461bcd60e51b81526004016102a590610bad565b83471161047b5760405162461bcd60e51b81526004016102a590610bf1565b6000836001600160a01b03168560405160006040518083038185875af1925050503d80600081146104c8576040519150601f19603f3d011682016040523d82523d6000602084013e6104cd565b606091505b50509050806104ee5760405162461bcd60e51b81526004016102a590610c33565b600060405180608001604052806105036108c2565b6001600160a01b03168152602001866001600160a01b031681526020018781526020014281525090506001600b600082825461053f9190610c72565b9091555050600b546000908152600c60209081526040808320845181547fffffffffffffffffffffffff00000000000000000000000000000000000000009081166001600160a01b039283161783559386015160018301805490951691161790925583015160028201556060830151600390910155600a80548892906105c6908490610c85565b909155504290506001600160a01b0386166105df6108c2565b6001600160a01b03167f2f6639d24651730c7bf57c95ddbf96d66d11477e4ec626876f92c22e5f365e688960405161061791906109d7565b60405180910390a4505050505050565b60055434116106485760405162461bcd60e51b81526004016102a590610cca565b6106706106536108c2565b6001600160a01b0316600090815260096020526040902054151590565b61076e576001546000906001600160a01b0316636a6278426106906108c2565b6040518263ffffffff1660e01b81526004016106ac9190610934565b6020604051808303816000875af11580156106cb573d6000803e3d6000fd5b505050506040513d601f19601f820116820180604052508101906106ef9190610ce5565b905080600960006106fe6108c2565b6001600160a01b0316815260208101919091526040016000205560076107226108c2565b81546001810183556000928352602090922090910180547fffffffffffffffffffffffff0000000000000000000000000000000000000000166001600160a01b03909216919091179055505b346008600061077b6108c2565b6001600160a01b03166001600160a01b0316815260200190815260200160002060008282546107aa9190610c72565b9250508190555034600a60008282546107c39190610c72565b909155505060408051808201909152348152426020820152600d60006107e76108c2565b6001600160a01b031681526020808201929092526040016000908120805460018181018355918352918390208451600290930201918255918301519101554261082e6108c2565b6001600160a01b03167f4928895ba6723e8e27b15f32e4c3054a1b6c7f8c03f133558d6fa42b3928d14c3460405161086691906109d7565b60405180910390a350565b6001600160a01b0381166000908152600960205260408120546108a65760405162461bcd60e51b81526004016102a590610d5e565b506001600160a01b031660009081526009602052604090205490565b6000601436108015906108df57506000546001600160a01b031633145b1561090f57507fffffffffffffffffffffffffffffffffffffffffffffffffffffffffffffffec36013560601c90565b503390565b60006001600160a01b0382166102cf565b61092e81610914565b82525050565b602081016102cf8284610925565b805b811461094f57600080fd5b50565b80356102cf81610942565b60006020828403121561097257610972600080fd5b600061097e8484610952565b949350505050565b61094481610914565b80356102cf81610986565b6000602082840312156109af576109af600080fd5b600061097e848461098f565b80151561092e565b602081016102cf82846109bb565b8061092e565b602081016102cf82846109d1565b60006102cf82610914565b60006102cf826109e5565b61092e816109f0565b602081016102cf82846109fb565b60008060408385031215610a2857610a28600080fd5b6000610a348585610952565b9250506020610a458582860161098f565b9150509250929050565b60238152602081017f46756e647261697365723a2043616c6c6572206d757374206265207265706f7281527f7465720000000000000000000000000000000000000000000000000000000000602082015290505b60400190565b602080825281016102cf81610a4f565b602b8152602081017f46756e64726169736572203a20476976656e2061646472657373206973206e6f81527f74206465706f7369746f7200000000000000000000000000000000000000000060208201529050610aa3565b602080825281016102cf81610ab9565b801515610944565b80516102cf81610b21565b600060208284031215610b4957610b49600080fd5b600061097e8484610b29565b60278152602081017f46756e647261697365723a2041646472657373206973206e6f74206f6e20776881527f6974656c6973740000000000000000000000000000000000000000000000000060208201529050610aa3565b602080825281016102cf81610b55565b60178152602081017f46756e647261697365723a204f766572636c61696d6564000000000000000000815290505b60200190565b602080825281016102cf81610bbd565b60108152602081017f5472616e73666572206661696c65642e0000000000000000000000000000000081529050610beb565b602080825281016102cf81610c01565b7f4e487b7100000000000000000000000000000000000000000000000000000000600052601160045260246000fd5b808201808211156102cf576102cf610c43565b818103818111156102cf576102cf610c43565b601a8152602081017f46756e64726169736572203a20496e76616c69642076616c756500000000000081529050610beb565b602080825281016102cf81610c98565b80516102cf81610942565b600060208284031215610cfa57610cfa600080fd5b600061097e8484610cda565b602b8152602081017f46756e64726169736572203a20676976656e2061646472657373206973206e6f81527f74206465706f7369746f7200000000000000000000000000000000000000000060208201529050610aa3565b602080825281016102cf81610d0656fea26469706673582212200d5c254760f68df8b99a95fd3b276c182b1472c1741768dd606a8ad04467c2f064736f6c63430008120033",
  "linkReferences": {},
  "deployedLinkReferences": {}
}