{
  "_format": "hh-sol-artifact-1",
  "contractName": "Fundraiser",
  "sourceName": "contracts/Fundraiser.sol",
  "abi": [
    {
      "inputs": [
        {
          "internalType": "address",
          "name": "_tokenAddress",
          "type": "address"
        },
        {
          "internalType": "address",
          "name": "_recipient",
          "type": "address"
        },
        {
          "internalType": "address",
          "name": "_whitelist",
          "type": "address"
        },
        {
          "internalType": "string",
          "name": "_recipientName",
          "type": "string"
        },
        {
          "internalType": "address",
          "name": "_reporter",
          "type": "address"
        },
        {
          "internalType": "uint256",
          "name": "_minimumDonate",
          "type": "uint256"
        }
      ],
      "stateMutability": "payable",
      "type": "constructor"
    },
    {
      "anonymous": false,
      "inputs": [
        {
          "indexed": true,
          "internalType": "address",
          "name": "claimer",
          "type": "address"
        },
        {
          "indexed": true,
          "internalType": "address",
          "name": "paymentDst",
          "type": "address"
        },
        {
          "indexed": false,
          "internalType": "uint256",
          "name": "amount",
          "type": "uint256"
        },
        {
          "indexed": true,
          "internalType": "uint256",
          "name": "time",
          "type": "uint256"
        }
      ],
      "name": "Claimed",
      "type": "event"
    },
    {
      "anonymous": false,
      "inputs": [
        {
          "indexed": true,
          "internalType": "address",
          "name": "donator",
          "type": "address"
        },
        {
          "indexed": false,
          "internalType": "uint256",
          "name": "amount",
          "type": "uint256"
        },
        {
          "indexed": true,
          "internalType": "uint256",
          "name": "time",
          "type": "uint256"
        }
      ],
      "name": "Donated",
      "type": "event"
    },
    {
      "inputs": [],
      "name": "NFT",
      "outputs": [
        {
          "internalType": "contract IDonaFT",
          "name": "",
          "type": "address"
        }
      ],
      "stateMutability": "view",
      "type": "function"
    },
    {
      "inputs": [
        {
          "internalType": "uint256",
          "name": "_amount",
          "type": "uint256"
        },
        {
          "internalType": "address",
          "name": "_whitelistAddr",
          "type": "address"
        }
      ],
      "name": "claim",
      "outputs": [],
      "stateMutability": "nonpayable",
      "type": "function"
    },
    {
      "inputs": [],
      "name": "donate",
      "outputs": [],
      "stateMutability": "payable",
      "type": "function"
    },
    {
      "inputs": [],
      "name": "getCurrentFundAmount",
      "outputs": [
        {
          "internalType": "uint256",
          "name": "",
          "type": "uint256"
        }
      ],
      "stateMutability": "view",
      "type": "function"
    },
    {
      "inputs": [
        {
          "internalType": "address",
          "name": "addr",
          "type": "address"
        }
      ],
      "name": "getDepositorFundAmount",
      "outputs": [
        {
          "internalType": "uint256",
          "name": "",
          "type": "uint256"
        }
      ],
      "stateMutability": "view",
      "type": "function"
    },
    {
      "inputs": [
        {
          "internalType": "address",
          "name": "addr",
          "type": "address"
        }
      ],
      "name": "getTokenId",
      "outputs": [
        {
          "internalType": "uint256",
          "name": "",
          "type": "uint256"
        }
      ],
      "stateMutability": "view",
      "type": "function"
    },
    {
      "inputs": [
        {
          "internalType": "address",
          "name": "addr",
          "type": "address"
        }
      ],
      "name": "isDepositor",
      "outputs": [
        {
          "internalType": "bool",
          "name": "",
          "type": "bool"
        }
      ],
      "stateMutability": "view",
      "type": "function"
    },
    {
      "inputs": [],
      "name": "minimumDonate",
      "outputs": [
        {
          "internalType": "uint256",
          "name": "",
          "type": "uint256"
        }
      ],
      "stateMutability": "view",
      "type": "function"
    },
    {
      "inputs": [],
      "name": "reporter",
      "outputs": [
        {
          "internalType": "address",
          "name": "",
          "type": "address"
        }
      ],
      "stateMutability": "view",
      "type": "function"
    },
    {
      "inputs": [
        {
          "internalType": "uint256",
          "name": "_minimumDonate",
          "type": "uint256"
        }
      ],
      "name": "setMinimumDonate",
      "outputs": [],
      "stateMutability": "nonpayable",
      "type": "function"
    }
  ],
  "bytecode": "0x6080604052604051620011183803806200111883398101604081905262000026916200021e565b600080546001600160a01b038089166001600160a01b031992831617909255600180548784169083161790556005805485841690831617905560408051808201909152918716808352602083018690526002805490921617815560036200008e8682620003cc565b50505060045550620004989350505050565b60006001600160a01b0382165b92915050565b620000be81620000a0565b8114620000ca57600080fd5b50565b8051620000ad81620000b3565b634e487b7160e01b600052604160045260246000fd5b601f19601f83011681016001600160401b0381118282101715620001185762000118620000da565b6040525050565b60006200012b60405190565b9050620001398282620000f0565b919050565b60006001600160401b038211156200015a576200015a620000da565b601f19601f83011660200192915050565b60005b83811015620001885781810151838201526020016200016e565b50506000910152565b6000620001a8620001a2846200013e565b6200011f565b905082815260208101848484011115620001c557620001c5600080fd5b620001d28482856200016b565b509392505050565b600082601f830112620001f057620001f0600080fd5b81516200020284826020860162000191565b949350505050565b80620000be565b8051620000ad816200020a565b60008060008060008060c087890312156200023c576200023c600080fd5b60006200024a8989620000cd565b96505060206200025d89828a01620000cd565b95505060406200027089828a01620000cd565b606089015190955090506001600160401b03811115620002935762000293600080fd5b620002a189828a01620001da565b9350506080620002b489828a01620000cd565b92505060a0620002c789828a0162000211565b9150509295509295509295565b634e487b7160e01b600052602260045260246000fd5b600281046001821680620002ff57607f821691505b602082108103620003145762000314620002d4565b50919050565b6000620000ad620003288381565b90565b62000336836200031a565b815460001960089490940293841b1916921b91909117905550565b6000620003608184846200032b565b505050565b8181101562000384576200037b60008262000351565b60010162000365565b5050565b601f82111562000360576000818152602090206020601f85010481016020851015620003b15750805b620003c56020601f86010483018262000365565b5050505050565b81516001600160401b03811115620003e857620003e8620000da565b620003f48254620002ea565b6200040182828562000388565b506020601f821160018114620004395760008315620004205750848201515b600019600885021c1981166002850217855550620003c5565b600084815260208120601f198516915b828110156200046b578785015182556020948501946001909201910162000449565b5084821015620004895783870151600019601f87166008021c191681555b50505050600202600101905550565b610c7080620004a86000396000f3fe6080604052600436106100b15760003560e01c80637c0b8de211610069578063ddd5e1b21161004e578063ddd5e1b2146101c0578063ed88c68e146101e0578063f1537686146101e857600080fd5b80637c0b8de21461017e5780639f43a92e146101ab57600080fd5b80632f70d1ba1161009a5780632f70d1ba1461010e578063382b76191461013b5780633ccdcfa11461015e57600080fd5b8063010ec441146100b657806317772ff8146100ec575b600080fd5b3480156100c257600080fd5b506005546100d6906001600160a01b031681565b6040516100e39190610800565b60405180910390f35b3480156100f857600080fd5b5061010c610107366004610829565b610208565b005b34801561011a57600080fd5b5061012e610129366004610866565b610240565b6040516100e3919061088f565b34801561014757600080fd5b5061015160045481565b6040516100e391906108a3565b34801561016a57600080fd5b50610151610179366004610866565b610262565b34801561018a57600080fd5b5060005461019e906001600160a01b031681565b6040516100e391906108d0565b3480156101b757600080fd5b50600954610151565b3480156101cc57600080fd5b5061010c6101db3660046108de565b6102b3565b61010c61059b565b3480156101f457600080fd5b50610151610203366004610866565b61078f565b6005546001600160a01b0316331461023b5760405162461bcd60e51b815260040161023290610975565b60405180910390fd5b600455565b6001600160a01b03811660009081526008602052604081205415155b92915050565b6001600160a01b0381166000908152600860205260408120546102975760405162461bcd60e51b8152600401610232906109dd565b506001600160a01b031660009081526007602052604090205490565b6001546040517fc683630d00000000000000000000000000000000000000000000000000000000815282916000916001600160a01b039091169063c683630d90610301908590600401610800565b602060405180830381865afa15801561031e573d6000803e3d6000fd5b505050506040513d601f19601f820116820180604052508101906103429190610a00565b6001546040517fc683630d0000000000000000000000000000000000000000000000000000000081529192506001600160a01b03169063c683630d9061038c908590600401610800565b602060405180830381865afa1580156103a9573d6000803e3d6000fd5b505050506040513d601f19601f820116820180604052508101906103cd9190610a00565b6103e95760405162461bcd60e51b815260040161023290610a79565b8347116104085760405162461bcd60e51b815260040161023290610abd565b6000836001600160a01b03168560405160006040518083038185875af1925050503d8060008114610455576040519150601f19603f3d011682016040523d82523d6000602084013e61045a565b606091505b505090508061047b5760405162461bcd60e51b815260040161023290610aff565b604080516080810182523381526001600160a01b0386166020820152908101869052426060820152600a8054600191906000906104b9908490610b3e565b9091555050600a546000908152600b60209081526040808320845181547fffffffffffffffffffffffff00000000000000000000000000000000000000009081166001600160a01b03928316178355938601516001830180549095169116179092558301516002820155606083015160039091015560098054889290610540908490610b51565b9250508190555042856001600160a01b0316336001600160a01b03167f2f6639d24651730c7bf57c95ddbf96d66d11477e4ec626876f92c22e5f365e688960405161058b91906108a3565b60405180910390a4505050505050565b60045434116105bc5760405162461bcd60e51b815260040161023290610b96565b336000908152600860205260409020546106cb57600080546040517f6a6278420000000000000000000000000000000000000000000000000000000081526001600160a01b0390911690636a6278429061061a903390600401610800565b6020604051808303816000875af1158015610639573d6000803e3d6000fd5b505050506040513d601f19601f8201168201806040525081019061065d9190610bb1565b336000818152600860205260408120929092556006805460018101825592527ff652222313e28459528d920b65115c16c04f3efc82aaedc97be59f3f377c0d3f90910180547fffffffffffffffffffffffff0000000000000000000000000000000000000000169091179055505b33600090815260076020526040812080543492906106ea908490610b3e565b9250508190555034600960008282546107039190610b3e565b909155505060408051808201825234808252426020808401828152336000818152600c84528781208054600181810183559183529490912087516002909502019384559151929091019190915593519293909290917f4928895ba6723e8e27b15f32e4c3054a1b6c7f8c03f133558d6fa42b3928d14c9161078491906108a3565b60405180910390a350565b6001600160a01b0381166000908152600860205260408120546107c45760405162461bcd60e51b815260040161023290610c2a565b506001600160a01b031660009081526008602052604090205490565b60006001600160a01b03821661025c565b6107fa816107e0565b82525050565b6020810161025c82846107f1565b805b811461081b57600080fd5b50565b803561025c8161080e565b60006020828403121561083e5761083e600080fd5b600061084a848461081e565b949350505050565b610810816107e0565b803561025c81610852565b60006020828403121561087b5761087b600080fd5b600061084a848461085b565b8015156107fa565b6020810161025c8284610887565b806107fa565b6020810161025c828461089d565b600061025c826107e0565b600061025c826108b1565b6107fa816108bc565b6020810161025c82846108c7565b600080604083850312156108f4576108f4600080fd5b6000610900858561081e565b92505060206109118582860161085b565b9150509250929050565b60238152602081017f46756e647261697365723a2043616c6c6572206d757374206265207265706f7281527f7465720000000000000000000000000000000000000000000000000000000000602082015290505b60400190565b6020808252810161025c8161091b565b602b8152602081017f46756e64726169736572203a20476976656e2061646472657373206973206e6f81527f74206465706f7369746f720000000000000000000000000000000000000000006020820152905061096f565b6020808252810161025c81610985565b801515610810565b805161025c816109ed565b600060208284031215610a1557610a15600080fd5b600061084a84846109f5565b60278152602081017f46756e647261697365723a2041646472657373206973206e6f74206f6e20776881527f6974656c697374000000000000000000000000000000000000000000000000006020820152905061096f565b6020808252810161025c81610a21565b60178152602081017f46756e647261697365723a204f766572636c61696d6564000000000000000000815290505b60200190565b6020808252810161025c81610a89565b60108152602081017f5472616e73666572206661696c65642e0000000000000000000000000000000081529050610ab7565b6020808252810161025c81610acd565b7f4e487b7100000000000000000000000000000000000000000000000000000000600052601160045260246000fd5b8082018082111561025c5761025c610b0f565b8181038181111561025c5761025c610b0f565b601a8152602081017f46756e64726169736572203a20496e76616c69642076616c756500000000000081529050610ab7565b6020808252810161025c81610b64565b805161025c8161080e565b600060208284031215610bc657610bc6600080fd5b600061084a8484610ba6565b602b8152602081017f46756e64726169736572203a20676976656e2061646472657373206973206e6f81527f74206465706f7369746f720000000000000000000000000000000000000000006020820152905061096f565b6020808252810161025c81610bd256fea264697066735822122050848915375908279e02cde91aa5e1d85c242ea2cc80f1b90e7d929789f0cb7f64736f6c63430008120033",
  "linkReferences": {},
  "deployedLinkReferences": {}
}